{
	"contracts/4_CrowdFund.sol": {
		"CrowdFund": {
			"abi": [
				{
					"inputs": [
						{
							"internalType": "uint256",
							"name": "_goal",
							"type": "uint256"
						},
						{
							"internalType": "uint256",
							"name": "_durationMinutes",
							"type": "uint256"
						}
					],
					"stateMutability": "nonpayable",
					"type": "constructor"
				},
				{
					"anonymous": false,
					"inputs": [
						{
							"indexed": true,
							"internalType": "address",
							"name": "donor",
							"type": "address"
						},
						{
							"indexed": false,
							"internalType": "uint256",
							"name": "amount",
							"type": "uint256"
						}
					],
					"name": "Donation",
					"type": "event"
				},
				{
					"anonymous": false,
					"inputs": [
						{
							"indexed": true,
							"internalType": "address",
							"name": "owner",
							"type": "address"
						},
						{
							"indexed": false,
							"internalType": "uint256",
							"name": "amount",
							"type": "uint256"
						}
					],
					"name": "FundsWithdrawn",
					"type": "event"
				},
				{
					"anonymous": false,
					"inputs": [
						{
							"indexed": true,
							"internalType": "address",
							"name": "contributor",
							"type": "address"
						},
						{
							"indexed": false,
							"internalType": "uint256",
							"name": "amount",
							"type": "uint256"
						}
					],
					"name": "Refunded",
					"type": "event"
				},
				{
					"inputs": [
						{
							"internalType": "address",
							"name": "",
							"type": "address"
						}
					],
					"name": "contributions",
					"outputs": [
						{
							"internalType": "uint256",
							"name": "",
							"type": "uint256"
						}
					],
					"stateMutability": "view",
					"type": "function"
				},
				{
					"inputs": [],
					"name": "deadline",
					"outputs": [
						{
							"internalType": "uint256",
							"name": "",
							"type": "uint256"
						}
					],
					"stateMutability": "view",
					"type": "function"
				},
				{
					"inputs": [],
					"name": "donate",
					"outputs": [],
					"stateMutability": "payable",
					"type": "function"
				},
				{
					"inputs": [],
					"name": "fundsWithdrawn",
					"outputs": [
						{
							"internalType": "bool",
							"name": "",
							"type": "bool"
						}
					],
					"stateMutability": "view",
					"type": "function"
				},
				{
					"inputs": [],
					"name": "getBalance",
					"outputs": [
						{
							"internalType": "uint256",
							"name": "",
							"type": "uint256"
						}
					],
					"stateMutability": "view",
					"type": "function"
				},
				{
					"inputs": [],
					"name": "getTimeLeft",
					"outputs": [
						{
							"internalType": "uint256",
							"name": "",
							"type": "uint256"
						}
					],
					"stateMutability": "view",
					"type": "function"
				},
				{
					"inputs": [],
					"name": "goal",
					"outputs": [
						{
							"internalType": "uint256",
							"name": "",
							"type": "uint256"
						}
					],
					"stateMutability": "view",
					"type": "function"
				},
				{
					"inputs": [],
					"name": "goalReached",
					"outputs": [
						{
							"internalType": "bool",
							"name": "",
							"type": "bool"
						}
					],
					"stateMutability": "view",
					"type": "function"
				},
				{
					"inputs": [],
					"name": "owner",
					"outputs": [
						{
							"internalType": "address",
							"name": "",
							"type": "address"
						}
					],
					"stateMutability": "view",
					"type": "function"
				},
				{
					"inputs": [],
					"name": "refund",
					"outputs": [],
					"stateMutability": "nonpayable",
					"type": "function"
				},
				{
					"inputs": [],
					"name": "totalRaised",
					"outputs": [
						{
							"internalType": "uint256",
							"name": "",
							"type": "uint256"
						}
					],
					"stateMutability": "view",
					"type": "function"
				},
				{
					"inputs": [],
					"name": "withdrawFunds",
					"outputs": [],
					"stateMutability": "nonpayable",
					"type": "function"
				}
			],
			"devdoc": {
				"kind": "dev",
				"methods": {},
				"version": 1
			},
			"evm": {
				"assembly": "    /* \"contracts/4_CrowdFund.sol\":74:2405  contract CrowdFund {... */\n  mstore(0x40, 0x80)\n    /* \"contracts/4_CrowdFund.sol\":866:1043  constructor(uint _goal, uint _durationMinutes) {... */\n  callvalue\n  dup1\n  iszero\n  tag_1\n  jumpi\n  revert(0x00, 0x00)\ntag_1:\n  pop\n  mload(0x40)\n  sub(codesize, bytecodeSize)\n  dup1\n  bytecodeSize\n  dup4\n  codecopy\n  dup2\n  dup2\n  add\n  0x40\n  mstore\n  dup2\n  add\n  swap1\n  tag_2\n  swap2\n  swap1\n  tag_3\n  jump\t// in\ntag_2:\n    /* \"contracts/4_CrowdFund.sol\":932:942  msg.sender */\n  caller\n    /* \"contracts/4_CrowdFund.sol\":924:929  owner */\n  0x00\n  0x00\n    /* \"contracts/4_CrowdFund.sol\":924:942  owner = msg.sender */\n  0x0100\n  exp\n  dup2\n  sload\n  dup2\n  0xffffffffffffffffffffffffffffffffffffffff\n  mul\n  not\n  and\n  swap1\n  dup4\n  0xffffffffffffffffffffffffffffffffffffffff\n  and\n  mul\n  or\n  swap1\n  sstore\n  pop\n    /* \"contracts/4_CrowdFund.sol\":960:965  _goal */\n  dup2\n    /* \"contracts/4_CrowdFund.sol\":953:957  goal */\n  0x01\n    /* \"contracts/4_CrowdFund.sol\":953:965  goal = _goal */\n  dup2\n  swap1\n  sstore\n  pop\n    /* \"contracts/4_CrowdFund.sol\":1025:1034  1 minutes */\n  0x3c\n    /* \"contracts/4_CrowdFund.sol\":1006:1022  _durationMinutes */\n  dup2\n    /* \"contracts/4_CrowdFund.sol\":1006:1034  _durationMinutes * 1 minutes */\n  tag_6\n  swap2\n  swap1\n  tag_7\n  jump\t// in\ntag_6:\n    /* \"contracts/4_CrowdFund.sol\":987:1002  block.timestamp */\n  timestamp\n    /* \"contracts/4_CrowdFund.sol\":987:1035  block.timestamp + (_durationMinutes * 1 minutes) */\n  tag_8\n  swap2\n  swap1\n  tag_9\n  jump\t// in\ntag_8:\n    /* \"contracts/4_CrowdFund.sol\":976:984  deadline */\n  0x02\n    /* \"contracts/4_CrowdFund.sol\":976:1035  deadline = block.timestamp + (_durationMinutes * 1 minutes) */\n  dup2\n  swap1\n  sstore\n  pop\n    /* \"contracts/4_CrowdFund.sol\":866:1043  constructor(uint _goal, uint _durationMinutes) {... */\n  pop\n  pop\n    /* \"contracts/4_CrowdFund.sol\":74:2405  contract CrowdFund {... */\n  jump(tag_10)\n    /* \"#utility.yul\":88:205   */\ntag_12:\n    /* \"#utility.yul\":197:198   */\n  0x00\n    /* \"#utility.yul\":194:195   */\n  0x00\n    /* \"#utility.yul\":187:199   */\n  revert\n    /* \"#utility.yul\":334:411   */\ntag_14:\n    /* \"#utility.yul\":371:378   */\n  0x00\n    /* \"#utility.yul\":400:405   */\n  dup2\n    /* \"#utility.yul\":389:405   */\n  swap1\n  pop\n    /* \"#utility.yul\":334:411   */\n  swap2\n  swap1\n  pop\n  jump\t// out\n    /* \"#utility.yul\":417:539   */\ntag_15:\n    /* \"#utility.yul\":490:514   */\n  tag_24\n    /* \"#utility.yul\":508:513   */\n  dup2\n    /* \"#utility.yul\":490:514   */\n  tag_14\n  jump\t// in\ntag_24:\n    /* \"#utility.yul\":483:488   */\n  dup2\n    /* \"#utility.yul\":480:515   */\n  eq\n    /* \"#utility.yul\":470:533   */\n  tag_25\n  jumpi\n    /* \"#utility.yul\":529:530   */\n  0x00\n    /* \"#utility.yul\":526:527   */\n  0x00\n    /* \"#utility.yul\":519:531   */\n  revert\n    /* \"#utility.yul\":470:533   */\ntag_25:\n    /* \"#utility.yul\":417:539   */\n  pop\n  jump\t// out\n    /* \"#utility.yul\":545:688   */\ntag_16:\n    /* \"#utility.yul\":602:607   */\n  0x00\n    /* \"#utility.yul\":633:639   */\n  dup2\n    /* \"#utility.yul\":627:640   */\n  mload\n    /* \"#utility.yul\":618:640   */\n  swap1\n  pop\n    /* \"#utility.yul\":649:682   */\n  tag_27\n    /* \"#utility.yul\":676:681   */\n  dup2\n    /* \"#utility.yul\":649:682   */\n  tag_15\n  jump\t// in\ntag_27:\n    /* \"#utility.yul\":545:688   */\n  swap3\n  swap2\n  pop\n  pop\n  jump\t// out\n    /* \"#utility.yul\":694:1201   */\ntag_3:\n    /* \"#utility.yul\":773:779   */\n  0x00\n    /* \"#utility.yul\":781:787   */\n  0x00\n    /* \"#utility.yul\":830:832   */\n  0x40\n    /* \"#utility.yul\":818:827   */\n  dup4\n    /* \"#utility.yul\":809:816   */\n  dup6\n    /* \"#utility.yul\":805:828   */\n  sub\n    /* \"#utility.yul\":801:833   */\n  slt\n    /* \"#utility.yul\":798:917   */\n  iszero\n  tag_29\n  jumpi\n    /* \"#utility.yul\":836:915   */\n  tag_30\n  tag_12\n  jump\t// in\ntag_30:\n    /* \"#utility.yul\":798:917   */\ntag_29:\n    /* \"#utility.yul\":956:957   */\n  0x00\n    /* \"#utility.yul\":981:1045   */\n  tag_31\n    /* \"#utility.yul\":1037:1044   */\n  dup6\n    /* \"#utility.yul\":1028:1034   */\n  dup3\n    /* \"#utility.yul\":1017:1026   */\n  dup7\n    /* \"#utility.yul\":1013:1035   */\n  add\n    /* \"#utility.yul\":981:1045   */\n  tag_16\n  jump\t// in\ntag_31:\n    /* \"#utility.yul\":971:1045   */\n  swap3\n  pop\n    /* \"#utility.yul\":927:1055   */\n  pop\n    /* \"#utility.yul\":1094:1096   */\n  0x20\n    /* \"#utility.yul\":1120:1184   */\n  tag_32\n    /* \"#utility.yul\":1176:1183   */\n  dup6\n    /* \"#utility.yul\":1167:1173   */\n  dup3\n    /* \"#utility.yul\":1156:1165   */\n  dup7\n    /* \"#utility.yul\":1152:1174   */\n  add\n    /* \"#utility.yul\":1120:1184   */\n  tag_16\n  jump\t// in\ntag_32:\n    /* \"#utility.yul\":1110:1184   */\n  swap2\n  pop\n    /* \"#utility.yul\":1065:1194   */\n  pop\n    /* \"#utility.yul\":694:1201   */\n  swap3\n  pop\n  swap3\n  swap1\n  pop\n  jump\t// out\n    /* \"#utility.yul\":1207:1387   */\ntag_17:\n    /* \"#utility.yul\":1255:1332   */\n  0x4e487b7100000000000000000000000000000000000000000000000000000000\n    /* \"#utility.yul\":1252:1253   */\n  0x00\n    /* \"#utility.yul\":1245:1333   */\n  mstore\n    /* \"#utility.yul\":1352:1356   */\n  0x11\n    /* \"#utility.yul\":1349:1350   */\n  0x04\n    /* \"#utility.yul\":1342:1357   */\n  mstore\n    /* \"#utility.yul\":1376:1380   */\n  0x24\n    /* \"#utility.yul\":1373:1374   */\n  0x00\n    /* \"#utility.yul\":1366:1381   */\n  revert\n    /* \"#utility.yul\":1393:1803   */\ntag_7:\n    /* \"#utility.yul\":1433:1440   */\n  0x00\n    /* \"#utility.yul\":1456:1476   */\n  tag_35\n    /* \"#utility.yul\":1474:1475   */\n  dup3\n    /* \"#utility.yul\":1456:1476   */\n  tag_14\n  jump\t// in\ntag_35:\n    /* \"#utility.yul\":1451:1476   */\n  swap2\n  pop\n    /* \"#utility.yul\":1490:1510   */\n  tag_36\n    /* \"#utility.yul\":1508:1509   */\n  dup4\n    /* \"#utility.yul\":1490:1510   */\n  tag_14\n  jump\t// in\ntag_36:\n    /* \"#utility.yul\":1485:1510   */\n  swap3\n  pop\n    /* \"#utility.yul\":1545:1546   */\n  dup3\n    /* \"#utility.yul\":1542:1543   */\n  dup3\n    /* \"#utility.yul\":1538:1547   */\n  mul\n    /* \"#utility.yul\":1567:1597   */\n  tag_37\n    /* \"#utility.yul\":1585:1596   */\n  dup2\n    /* \"#utility.yul\":1567:1597   */\n  tag_14\n  jump\t// in\ntag_37:\n    /* \"#utility.yul\":1556:1597   */\n  swap2\n  pop\n    /* \"#utility.yul\":1746:1747   */\n  dup3\n    /* \"#utility.yul\":1737:1744   */\n  dup3\n    /* \"#utility.yul\":1733:1748   */\n  div\n    /* \"#utility.yul\":1730:1731   */\n  dup5\n    /* \"#utility.yul\":1727:1749   */\n  eq\n    /* \"#utility.yul\":1707:1708   */\n  dup4\n    /* \"#utility.yul\":1700:1709   */\n  iszero\n    /* \"#utility.yul\":1680:1763   */\n  or\n    /* \"#utility.yul\":1657:1796   */\n  tag_38\n  jumpi\n    /* \"#utility.yul\":1776:1794   */\n  tag_39\n  tag_17\n  jump\t// in\ntag_39:\n    /* \"#utility.yul\":1657:1796   */\ntag_38:\n    /* \"#utility.yul\":1441:1803   */\n  pop\n    /* \"#utility.yul\":1393:1803   */\n  swap3\n  swap2\n  pop\n  pop\n  jump\t// out\n    /* \"#utility.yul\":1809:2000   */\ntag_9:\n    /* \"#utility.yul\":1849:1852   */\n  0x00\n    /* \"#utility.yul\":1868:1888   */\n  tag_41\n    /* \"#utility.yul\":1886:1887   */\n  dup3\n    /* \"#utility.yul\":1868:1888   */\n  tag_14\n  jump\t// in\ntag_41:\n    /* \"#utility.yul\":1863:1888   */\n  swap2\n  pop\n    /* \"#utility.yul\":1902:1922   */\n  tag_42\n    /* \"#utility.yul\":1920:1921   */\n  dup4\n    /* \"#utility.yul\":1902:1922   */\n  tag_14\n  jump\t// in\ntag_42:\n    /* \"#utility.yul\":1897:1922   */\n  swap3\n  pop\n    /* \"#utility.yul\":1945:1946   */\n  dup3\n    /* \"#utility.yul\":1942:1943   */\n  dup3\n    /* \"#utility.yul\":1938:1947   */\n  add\n    /* \"#utility.yul\":1931:1947   */\n  swap1\n  pop\n    /* \"#utility.yul\":1966:1969   */\n  dup1\n    /* \"#utility.yul\":1963:1964   */\n  dup3\n    /* \"#utility.yul\":1960:1970   */\n  gt\n    /* \"#utility.yul\":1957:1993   */\n  iszero\n  tag_43\n  jumpi\n    /* \"#utility.yul\":1973:1991   */\n  tag_44\n  tag_17\n  jump\t// in\ntag_44:\n    /* \"#utility.yul\":1957:1993   */\ntag_43:\n    /* \"#utility.yul\":1809:2000   */\n  swap3\n  swap2\n  pop\n  pop\n  jump\t// out\n    /* \"contracts/4_CrowdFund.sol\":74:2405  contract CrowdFund {... */\ntag_10:\n  dataSize(sub_0)\n  dup1\n  dataOffset(sub_0)\n  0x00\n  codecopy\n  0x00\n  return\nstop\n\nsub_0: assembly {\n        /* \"contracts/4_CrowdFund.sol\":74:2405  contract CrowdFund {... */\n      mstore(0x40, 0x80)\n      jumpi(tag_1, lt(calldatasize, 0x04))\n      shr(0xe0, calldataload(0x00))\n      dup1\n      0x7d3d6522\n      gt\n      tag_14\n      jumpi\n      dup1\n      0x7d3d6522\n      eq\n      tag_8\n      jumpi\n      dup1\n      0x8da5cb5b\n      eq\n      tag_9\n      jumpi\n      dup1\n      0xac307fcf\n      eq\n      tag_10\n      jumpi\n      dup1\n      0xc5c4744c\n      eq\n      tag_11\n      jumpi\n      dup1\n      0xc7e284b8\n      eq\n      tag_12\n      jumpi\n      dup1\n      0xed88c68e\n      eq\n      tag_13\n      jumpi\n      jump(tag_1)\n    tag_14:\n      dup1\n      0x12065fe0\n      eq\n      tag_2\n      jumpi\n      dup1\n      0x24600fc3\n      eq\n      tag_3\n      jumpi\n      dup1\n      0x29dcb0cf\n      eq\n      tag_4\n      jumpi\n      dup1\n      0x40193883\n      eq\n      tag_5\n      jumpi\n      dup1\n      0x42e94c90\n      eq\n      tag_6\n      jumpi\n      dup1\n      0x590e1ae3\n      eq\n      tag_7\n      jumpi\n    tag_1:\n      revert(0x00, 0x00)\n        /* \"contracts/4_CrowdFund.sol\":2118:2214  function getBalance() public view returns (uint) {... */\n    tag_2:\n      callvalue\n      dup1\n      iszero\n      tag_15\n      jumpi\n      revert(0x00, 0x00)\n    tag_15:\n      pop\n      tag_16\n      tag_17\n      jump\t// in\n    tag_16:\n      mload(0x40)\n      tag_18\n      swap2\n      swap1\n      tag_19\n      jump\t// in\n    tag_18:\n      mload(0x40)\n      dup1\n      swap2\n      sub\n      swap1\n      return\n        /* \"contracts/4_CrowdFund.sol\":1382:1732  function withdrawFunds() public onlyOwner afterDeadline {... */\n    tag_3:\n      callvalue\n      dup1\n      iszero\n      tag_20\n      jumpi\n      revert(0x00, 0x00)\n    tag_20:\n      pop\n      tag_21\n      tag_22\n      jump\t// in\n    tag_21:\n      stop\n        /* \"contracts/4_CrowdFund.sol\":151:171  uint public deadline */\n    tag_4:\n      callvalue\n      dup1\n      iszero\n      tag_23\n      jumpi\n      revert(0x00, 0x00)\n    tag_23:\n      pop\n      tag_24\n      tag_25\n      jump\t// in\n    tag_24:\n      mload(0x40)\n      tag_26\n      swap2\n      swap1\n      tag_19\n      jump\t// in\n    tag_26:\n      mload(0x40)\n      dup1\n      swap2\n      sub\n      swap1\n      return\n        /* \"contracts/4_CrowdFund.sol\":127:144  uint public  goal */\n    tag_5:\n      callvalue\n      dup1\n      iszero\n      tag_27\n      jumpi\n      revert(0x00, 0x00)\n    tag_27:\n      pop\n      tag_28\n      tag_29\n      jump\t// in\n    tag_28:\n      mload(0x40)\n      tag_30\n      swap2\n      swap1\n      tag_19\n      jump\t// in\n    tag_30:\n      mload(0x40)\n      dup1\n      swap2\n      sub\n      swap1\n      return\n        /* \"contracts/4_CrowdFund.sol\":273:318  mapping(address => uint) public contributions */\n    tag_6:\n      callvalue\n      dup1\n      iszero\n      tag_31\n      jumpi\n      revert(0x00, 0x00)\n    tag_31:\n      pop\n      tag_32\n      0x04\n      dup1\n      calldatasize\n      sub\n      dup2\n      add\n      swap1\n      tag_33\n      swap2\n      swap1\n      tag_34\n      jump\t// in\n    tag_33:\n      tag_35\n      jump\t// in\n    tag_32:\n      mload(0x40)\n      tag_36\n      swap2\n      swap1\n      tag_19\n      jump\t// in\n    tag_36:\n      mload(0x40)\n      dup1\n      swap2\n      sub\n      swap1\n      return\n        /* \"contracts/4_CrowdFund.sol\":1740:2110  function refund() public afterDeadline {... */\n    tag_7:\n      callvalue\n      dup1\n      iszero\n      tag_37\n      jumpi\n      revert(0x00, 0x00)\n    tag_37:\n      pop\n      tag_38\n      tag_39\n      jump\t// in\n    tag_38:\n      stop\n        /* \"contracts/4_CrowdFund.sol\":208:231  bool public goalReached */\n    tag_8:\n      callvalue\n      dup1\n      iszero\n      tag_40\n      jumpi\n      revert(0x00, 0x00)\n    tag_40:\n      pop\n      tag_41\n      tag_42\n      jump\t// in\n    tag_41:\n      mload(0x40)\n      tag_43\n      swap2\n      swap1\n      tag_44\n      jump\t// in\n    tag_43:\n      mload(0x40)\n      dup1\n      swap2\n      sub\n      swap1\n      return\n        /* \"contracts/4_CrowdFund.sol\":100:120  address public owner */\n    tag_9:\n      callvalue\n      dup1\n      iszero\n      tag_45\n      jumpi\n      revert(0x00, 0x00)\n    tag_45:\n      pop\n      tag_46\n      tag_47\n      jump\t// in\n    tag_46:\n      mload(0x40)\n      tag_48\n      swap2\n      swap1\n      tag_49\n      jump\t// in\n    tag_48:\n      mload(0x40)\n      dup1\n      swap2\n      sub\n      swap1\n      return\n        /* \"contracts/4_CrowdFund.sol\":238:264  bool public fundsWithdrawn */\n    tag_10:\n      callvalue\n      dup1\n      iszero\n      tag_50\n      jumpi\n      revert(0x00, 0x00)\n    tag_50:\n      pop\n      tag_51\n      tag_52\n      jump\t// in\n    tag_51:\n      mload(0x40)\n      tag_53\n      swap2\n      swap1\n      tag_44\n      jump\t// in\n    tag_53:\n      mload(0x40)\n      dup1\n      swap2\n      sub\n      swap1\n      return\n        /* \"contracts/4_CrowdFund.sol\":178:201  uint public totalRaised */\n    tag_11:\n      callvalue\n      dup1\n      iszero\n      tag_54\n      jumpi\n      revert(0x00, 0x00)\n    tag_54:\n      pop\n      tag_55\n      tag_56\n      jump\t// in\n    tag_55:\n      mload(0x40)\n      tag_57\n      swap2\n      swap1\n      tag_19\n      jump\t// in\n    tag_57:\n      mload(0x40)\n      dup1\n      swap2\n      sub\n      swap1\n      return\n        /* \"contracts/4_CrowdFund.sol\":2222:2402  function getTimeLeft() public view returns (uint) {... */\n    tag_12:\n      callvalue\n      dup1\n      iszero\n      tag_58\n      jumpi\n      revert(0x00, 0x00)\n    tag_58:\n      pop\n      tag_59\n      tag_60\n      jump\t// in\n    tag_59:\n      mload(0x40)\n      tag_61\n      swap2\n      swap1\n      tag_19\n      jump\t// in\n    tag_61:\n      mload(0x40)\n      dup1\n      swap2\n      sub\n      swap1\n      return\n        /* \"contracts/4_CrowdFund.sol\":1051:1374  function donate() public payable beforeDeadline {... */\n    tag_13:\n      tag_62\n      tag_63\n      jump\t// in\n    tag_62:\n      stop\n        /* \"contracts/4_CrowdFund.sol\":2118:2214  function getBalance() public view returns (uint) {... */\n    tag_17:\n        /* \"contracts/4_CrowdFund.sol\":2161:2165  uint */\n      0x00\n        /* \"contracts/4_CrowdFund.sol\":2185:2206  address(this).balance */\n      selfbalance\n        /* \"contracts/4_CrowdFund.sol\":2178:2206  return address(this).balance */\n      swap1\n      pop\n        /* \"contracts/4_CrowdFund.sol\":2118:2214  function getBalance() public view returns (uint) {... */\n      swap1\n      jump\t// out\n        /* \"contracts/4_CrowdFund.sol\":1382:1732  function withdrawFunds() public onlyOwner afterDeadline {... */\n    tag_22:\n        /* \"contracts/4_CrowdFund.sol\":565:570  owner */\n      0x00\n      0x00\n      swap1\n      sload\n      swap1\n      0x0100\n      exp\n      swap1\n      div\n      0xffffffffffffffffffffffffffffffffffffffff\n      and\n        /* \"contracts/4_CrowdFund.sol\":551:570  msg.sender == owner */\n      0xffffffffffffffffffffffffffffffffffffffff\n      and\n        /* \"contracts/4_CrowdFund.sol\":551:561  msg.sender */\n      caller\n        /* \"contracts/4_CrowdFund.sol\":551:570  msg.sender == owner */\n      0xffffffffffffffffffffffffffffffffffffffff\n      and\n      eq\n        /* \"contracts/4_CrowdFund.sol\":543:593  require(msg.sender == owner, \"You are not owner.\") */\n      tag_66\n      jumpi\n      mload(0x40)\n      0x08c379a000000000000000000000000000000000000000000000000000000000\n      dup2\n      mstore\n      0x04\n      add\n      tag_67\n      swap1\n      tag_68\n      jump\t// in\n    tag_67:\n      mload(0x40)\n      dup1\n      swap2\n      sub\n      swap1\n      revert\n    tag_66:\n        /* \"contracts/4_CrowdFund.sol\":802:810  deadline */\n      sload(0x02)\n        /* \"contracts/4_CrowdFund.sol\":783:798  block.timestamp */\n      timestamp\n        /* \"contracts/4_CrowdFund.sol\":783:810  block.timestamp >= deadline */\n      lt\n      iszero\n        /* \"contracts/4_CrowdFund.sol\":775:838  require(block.timestamp >= deadline, \"Campaign not yet ended.\") */\n      tag_70\n      jumpi\n      mload(0x40)\n      0x08c379a000000000000000000000000000000000000000000000000000000000\n      dup2\n      mstore\n      0x04\n      add\n      tag_71\n      swap1\n      tag_72\n      jump\t// in\n    tag_71:\n      mload(0x40)\n      dup1\n      swap2\n      sub\n      swap1\n      revert\n    tag_70:\n        /* \"contracts/4_CrowdFund.sol\":1457:1468  goalReached */\n      0x04\n      0x00\n      swap1\n      sload\n      swap1\n      0x0100\n      exp\n      swap1\n      div\n      0xff\n      and\n        /* \"contracts/4_CrowdFund.sol\":1449:1489  require(goalReached, \"Goal not reached\") */\n      tag_74\n      jumpi\n      mload(0x40)\n      0x08c379a000000000000000000000000000000000000000000000000000000000\n      dup2\n      mstore\n      0x04\n      add\n      tag_75\n      swap1\n      tag_76\n      jump\t// in\n    tag_75:\n      mload(0x40)\n      dup1\n      swap2\n      sub\n      swap1\n      revert\n    tag_74:\n        /* \"contracts/4_CrowdFund.sol\":1509:1523  fundsWithdrawn */\n      0x04\n      0x01\n      swap1\n      sload\n      swap1\n      0x0100\n      exp\n      swap1\n      div\n      0xff\n      and\n        /* \"contracts/4_CrowdFund.sol\":1508:1523  !fundsWithdrawn */\n      iszero\n        /* \"contracts/4_CrowdFund.sol\":1500:1545  require(!fundsWithdrawn, \"Already withdrawn\") */\n      tag_77\n      jumpi\n      mload(0x40)\n      0x08c379a000000000000000000000000000000000000000000000000000000000\n      dup2\n      mstore\n      0x04\n      add\n      tag_78\n      swap1\n      tag_79\n      jump\t// in\n    tag_78:\n      mload(0x40)\n      dup1\n      swap2\n      sub\n      swap1\n      revert\n    tag_77:\n        /* \"contracts/4_CrowdFund.sol\":1566:1577  uint amount */\n      0x00\n        /* \"contracts/4_CrowdFund.sol\":1580:1601  address(this).balance */\n      selfbalance\n        /* \"contracts/4_CrowdFund.sol\":1566:1601  uint amount = address(this).balance */\n      swap1\n      pop\n        /* \"contracts/4_CrowdFund.sol\":1629:1633  true */\n      0x01\n        /* \"contracts/4_CrowdFund.sol\":1612:1626  fundsWithdrawn */\n      0x04\n      0x01\n        /* \"contracts/4_CrowdFund.sol\":1612:1633  fundsWithdrawn = true */\n      0x0100\n      exp\n      dup2\n      sload\n      dup2\n      0xff\n      mul\n      not\n      and\n      swap1\n      dup4\n      iszero\n      iszero\n      mul\n      or\n      swap1\n      sstore\n      pop\n        /* \"contracts/4_CrowdFund.sol\":1654:1659  owner */\n      0x00\n      0x00\n      swap1\n      sload\n      swap1\n      0x0100\n      exp\n      swap1\n      div\n      0xffffffffffffffffffffffffffffffffffffffff\n      and\n        /* \"contracts/4_CrowdFund.sol\":1646:1669  payable(owner).transfer */\n      0xffffffffffffffffffffffffffffffffffffffff\n      and\n        /* \"contracts/4_CrowdFund.sol\":1646:1677  payable(owner).transfer(amount) */\n      0x08fc\n        /* \"contracts/4_CrowdFund.sol\":1670:1676  amount */\n      dup3\n        /* \"contracts/4_CrowdFund.sol\":1646:1677  payable(owner).transfer(amount) */\n      swap1\n      dup2\n      iszero\n      mul\n      swap1\n      mload(0x40)\n      0x00\n      mload(0x40)\n      dup1\n      dup4\n      sub\n      dup2\n      dup6\n      dup9\n      dup9\n      call\n      swap4\n      pop\n      pop\n      pop\n      pop\n      iszero\n      dup1\n      iszero\n      tag_81\n      jumpi\n      returndatacopy(0x00, 0x00, returndatasize)\n      revert(0x00, returndatasize)\n    tag_81:\n      pop\n        /* \"contracts/4_CrowdFund.sol\":1710:1715  owner */\n      0x00\n      0x00\n      swap1\n      sload\n      swap1\n      0x0100\n      exp\n      swap1\n      div\n      0xffffffffffffffffffffffffffffffffffffffff\n      and\n        /* \"contracts/4_CrowdFund.sol\":1695:1724  FundsWithdrawn(owner, amount) */\n      0xffffffffffffffffffffffffffffffffffffffff\n      and\n      0xeaff4b37086828766ad3268786972c0cd24259d4c87a80f9d3963a3c3d999b0d\n        /* \"contracts/4_CrowdFund.sol\":1717:1723  amount */\n      dup3\n        /* \"contracts/4_CrowdFund.sol\":1695:1724  FundsWithdrawn(owner, amount) */\n      mload(0x40)\n      tag_82\n      swap2\n      swap1\n      tag_19\n      jump\t// in\n    tag_82:\n      mload(0x40)\n      dup1\n      swap2\n      sub\n      swap1\n      log2\n        /* \"contracts/4_CrowdFund.sol\":1438:1732  {... */\n      pop\n        /* \"contracts/4_CrowdFund.sol\":1382:1732  function withdrawFunds() public onlyOwner afterDeadline {... */\n      jump\t// out\n        /* \"contracts/4_CrowdFund.sol\":151:171  uint public deadline */\n    tag_25:\n      sload(0x02)\n      dup2\n      jump\t// out\n        /* \"contracts/4_CrowdFund.sol\":127:144  uint public  goal */\n    tag_29:\n      sload(0x01)\n      dup2\n      jump\t// out\n        /* \"contracts/4_CrowdFund.sol\":273:318  mapping(address => uint) public contributions */\n    tag_35:\n      mstore(0x20, 0x05)\n      dup1\n      0x00\n      mstore\n      keccak256(0x00, 0x40)\n      0x00\n      swap2\n      pop\n      swap1\n      pop\n      sload\n      dup2\n      jump\t// out\n        /* \"contracts/4_CrowdFund.sol\":1740:2110  function refund() public afterDeadline {... */\n    tag_39:\n        /* \"contracts/4_CrowdFund.sol\":802:810  deadline */\n      sload(0x02)\n        /* \"contracts/4_CrowdFund.sol\":783:798  block.timestamp */\n      timestamp\n        /* \"contracts/4_CrowdFund.sol\":783:810  block.timestamp >= deadline */\n      lt\n      iszero\n        /* \"contracts/4_CrowdFund.sol\":775:838  require(block.timestamp >= deadline, \"Campaign not yet ended.\") */\n      tag_84\n      jumpi\n      mload(0x40)\n      0x08c379a000000000000000000000000000000000000000000000000000000000\n      dup2\n      mstore\n      0x04\n      add\n      tag_85\n      swap1\n      tag_72\n      jump\t// in\n    tag_85:\n      mload(0x40)\n      dup1\n      swap2\n      sub\n      swap1\n      revert\n    tag_84:\n        /* \"contracts/4_CrowdFund.sol\":1799:1810  goalReached */\n      0x04\n      0x00\n      swap1\n      sload\n      swap1\n      0x0100\n      exp\n      swap1\n      div\n      0xff\n      and\n        /* \"contracts/4_CrowdFund.sol\":1798:1810  !goalReached */\n      iszero\n        /* \"contracts/4_CrowdFund.sol\":1790:1844  require(!goalReached, \"Goal was reached, no refunds!\") */\n      tag_87\n      jumpi\n      mload(0x40)\n      0x08c379a000000000000000000000000000000000000000000000000000000000\n      dup2\n      mstore\n      0x04\n      add\n      tag_88\n      swap1\n      tag_89\n      jump\t// in\n    tag_88:\n      mload(0x40)\n      dup1\n      swap2\n      sub\n      swap1\n      revert\n    tag_87:\n        /* \"contracts/4_CrowdFund.sol\":1857:1873  uint contributed */\n      0x00\n        /* \"contracts/4_CrowdFund.sol\":1876:1889  contributions */\n      0x05\n        /* \"contracts/4_CrowdFund.sol\":1876:1901  contributions[msg.sender] */\n      0x00\n        /* \"contracts/4_CrowdFund.sol\":1890:1900  msg.sender */\n      caller\n        /* \"contracts/4_CrowdFund.sol\":1876:1901  contributions[msg.sender] */\n      0xffffffffffffffffffffffffffffffffffffffff\n      and\n      0xffffffffffffffffffffffffffffffffffffffff\n      and\n      dup2\n      mstore\n      0x20\n      add\n      swap1\n      dup2\n      mstore\n      0x20\n      add\n      0x00\n      keccak256\n      sload\n        /* \"contracts/4_CrowdFund.sol\":1857:1901  uint contributed = contributions[msg.sender] */\n      swap1\n      pop\n        /* \"contracts/4_CrowdFund.sol\":1934:1935  0 */\n      0x00\n        /* \"contracts/4_CrowdFund.sol\":1920:1931  contributed */\n      dup2\n        /* \"contracts/4_CrowdFund.sol\":1920:1935  contributed > 0 */\n      gt\n        /* \"contracts/4_CrowdFund.sol\":1912:1957  require(contributed > 0, \"Nothing to refund\") */\n      tag_90\n      jumpi\n      mload(0x40)\n      0x08c379a000000000000000000000000000000000000000000000000000000000\n      dup2\n      mstore\n      0x04\n      add\n      tag_91\n      swap1\n      tag_92\n      jump\t// in\n    tag_91:\n      mload(0x40)\n      dup1\n      swap2\n      sub\n      swap1\n      revert\n    tag_90:\n        /* \"contracts/4_CrowdFund.sol\":1998:1999  0 */\n      0x00\n        /* \"contracts/4_CrowdFund.sol\":1970:1983  contributions */\n      0x05\n        /* \"contracts/4_CrowdFund.sol\":1970:1995  contributions[msg.sender] */\n      0x00\n        /* \"contracts/4_CrowdFund.sol\":1984:1994  msg.sender */\n      caller\n        /* \"contracts/4_CrowdFund.sol\":1970:1995  contributions[msg.sender] */\n      0xffffffffffffffffffffffffffffffffffffffff\n      and\n      0xffffffffffffffffffffffffffffffffffffffff\n      and\n      dup2\n      mstore\n      0x20\n      add\n      swap1\n      dup2\n      mstore\n      0x20\n      add\n      0x00\n      keccak256\n        /* \"contracts/4_CrowdFund.sol\":1970:1999  contributions[msg.sender] = 0 */\n      dup2\n      swap1\n      sstore\n      pop\n        /* \"contracts/4_CrowdFund.sol\":2018:2028  msg.sender */\n      caller\n        /* \"contracts/4_CrowdFund.sol\":2010:2038  payable(msg.sender).transfer */\n      0xffffffffffffffffffffffffffffffffffffffff\n      and\n        /* \"contracts/4_CrowdFund.sol\":2010:2051  payable(msg.sender).transfer(contributed) */\n      0x08fc\n        /* \"contracts/4_CrowdFund.sol\":2039:2050  contributed */\n      dup3\n        /* \"contracts/4_CrowdFund.sol\":2010:2051  payable(msg.sender).transfer(contributed) */\n      swap1\n      dup2\n      iszero\n      mul\n      swap1\n      mload(0x40)\n      0x00\n      mload(0x40)\n      dup1\n      dup4\n      sub\n      dup2\n      dup6\n      dup9\n      dup9\n      call\n      swap4\n      pop\n      pop\n      pop\n      pop\n      iszero\n      dup1\n      iszero\n      tag_94\n      jumpi\n      returndatacopy(0x00, 0x00, returndatasize)\n      revert(0x00, returndatasize)\n    tag_94:\n      pop\n        /* \"contracts/4_CrowdFund.sol\":2078:2088  msg.sender */\n      caller\n        /* \"contracts/4_CrowdFund.sol\":2069:2102  Refunded(msg.sender, contributed) */\n      0xffffffffffffffffffffffffffffffffffffffff\n      and\n      0xd7dee2702d63ad89917b6a4da9981c90c4d24f8c2bdfd64c604ecae57d8d0651\n        /* \"contracts/4_CrowdFund.sol\":2090:2101  contributed */\n      dup3\n        /* \"contracts/4_CrowdFund.sol\":2069:2102  Refunded(msg.sender, contributed) */\n      mload(0x40)\n      tag_95\n      swap2\n      swap1\n      tag_19\n      jump\t// in\n    tag_95:\n      mload(0x40)\n      dup1\n      swap2\n      sub\n      swap1\n      log2\n        /* \"contracts/4_CrowdFund.sol\":1779:2110  {... */\n      pop\n        /* \"contracts/4_CrowdFund.sol\":1740:2110  function refund() public afterDeadline {... */\n      jump\t// out\n        /* \"contracts/4_CrowdFund.sol\":208:231  bool public goalReached */\n    tag_42:\n      0x04\n      0x00\n      swap1\n      sload\n      swap1\n      0x0100\n      exp\n      swap1\n      div\n      0xff\n      and\n      dup2\n      jump\t// out\n        /* \"contracts/4_CrowdFund.sol\":100:120  address public owner */\n    tag_47:\n      0x00\n      0x00\n      swap1\n      sload\n      swap1\n      0x0100\n      exp\n      swap1\n      div\n      0xffffffffffffffffffffffffffffffffffffffff\n      and\n      dup2\n      jump\t// out\n        /* \"contracts/4_CrowdFund.sol\":238:264  bool public fundsWithdrawn */\n    tag_52:\n      0x04\n      0x01\n      swap1\n      sload\n      swap1\n      0x0100\n      exp\n      swap1\n      div\n      0xff\n      and\n      dup2\n      jump\t// out\n        /* \"contracts/4_CrowdFund.sol\":178:201  uint public totalRaised */\n    tag_56:\n      sload(0x03)\n      dup2\n      jump\t// out\n        /* \"contracts/4_CrowdFund.sol\":2222:2402  function getTimeLeft() public view returns (uint) {... */\n    tag_60:\n        /* \"contracts/4_CrowdFund.sol\":2266:2270  uint */\n      0x00\n        /* \"contracts/4_CrowdFund.sol\":2306:2314  deadline */\n      sload(0x02)\n        /* \"contracts/4_CrowdFund.sol\":2287:2302  block.timestamp */\n      timestamp\n        /* \"contracts/4_CrowdFund.sol\":2287:2314  block.timestamp >= deadline */\n      lt\n        /* \"contracts/4_CrowdFund.sol\":2283:2351  if (block.timestamp >= deadline) {... */\n      tag_97\n      jumpi\n        /* \"contracts/4_CrowdFund.sol\":2338:2339  0 */\n      0x00\n        /* \"contracts/4_CrowdFund.sol\":2331:2339  return 0 */\n      swap1\n      pop\n      jump(tag_96)\n        /* \"contracts/4_CrowdFund.sol\":2283:2351  if (block.timestamp >= deadline) {... */\n    tag_97:\n        /* \"contracts/4_CrowdFund.sol\":2379:2394  block.timestamp */\n      timestamp\n        /* \"contracts/4_CrowdFund.sol\":2368:2376  deadline */\n      sload(0x02)\n        /* \"contracts/4_CrowdFund.sol\":2368:2394  deadline - block.timestamp */\n      tag_98\n      swap2\n      swap1\n      tag_99\n      jump\t// in\n    tag_98:\n        /* \"contracts/4_CrowdFund.sol\":2361:2394  return deadline - block.timestamp */\n      swap1\n      pop\n        /* \"contracts/4_CrowdFund.sol\":2222:2402  function getTimeLeft() public view returns (uint) {... */\n    tag_96:\n      swap1\n      jump\t// out\n        /* \"contracts/4_CrowdFund.sol\":1051:1374  function donate() public payable beforeDeadline {... */\n    tag_63:\n        /* \"contracts/4_CrowdFund.sol\":684:692  deadline */\n      sload(0x02)\n        /* \"contracts/4_CrowdFund.sol\":666:681  block.timestamp */\n      timestamp\n        /* \"contracts/4_CrowdFund.sol\":666:692  block.timestamp < deadline */\n      lt\n        /* \"contracts/4_CrowdFund.sol\":658:711  require(block.timestamp < deadline, \"Campaign ended\") */\n      tag_101\n      jumpi\n      mload(0x40)\n      0x08c379a000000000000000000000000000000000000000000000000000000000\n      dup2\n      mstore\n      0x04\n      add\n      tag_102\n      swap1\n      tag_103\n      jump\t// in\n    tag_102:\n      mload(0x40)\n      dup1\n      swap2\n      sub\n      swap1\n      revert\n    tag_101:\n        /* \"contracts/4_CrowdFund.sol\":1130:1131  0 */\n      0x00\n        /* \"contracts/4_CrowdFund.sol\":1118:1127  msg.value */\n      callvalue\n        /* \"contracts/4_CrowdFund.sol\":1118:1131  msg.value > 0 */\n      gt\n        /* \"contracts/4_CrowdFund.sol\":1110:1149  require(msg.value > 0, \"Must send ETH\") */\n      tag_105\n      jumpi\n      mload(0x40)\n      0x08c379a000000000000000000000000000000000000000000000000000000000\n      dup2\n      mstore\n      0x04\n      add\n      tag_106\n      swap1\n      tag_107\n      jump\t// in\n    tag_106:\n      mload(0x40)\n      dup1\n      swap2\n      sub\n      swap1\n      revert\n    tag_105:\n        /* \"contracts/4_CrowdFund.sol\":1191:1200  msg.value */\n      callvalue\n        /* \"contracts/4_CrowdFund.sol\":1162:1175  contributions */\n      0x05\n        /* \"contracts/4_CrowdFund.sol\":1162:1187  contributions[msg.sender] */\n      0x00\n        /* \"contracts/4_CrowdFund.sol\":1176:1186  msg.sender */\n      caller\n        /* \"contracts/4_CrowdFund.sol\":1162:1187  contributions[msg.sender] */\n      0xffffffffffffffffffffffffffffffffffffffff\n      and\n      0xffffffffffffffffffffffffffffffffffffffff\n      and\n      dup2\n      mstore\n      0x20\n      add\n      swap1\n      dup2\n      mstore\n      0x20\n      add\n      0x00\n      keccak256\n      0x00\n        /* \"contracts/4_CrowdFund.sol\":1162:1200  contributions[msg.sender] += msg.value */\n      dup3\n      dup3\n      sload\n      tag_108\n      swap2\n      swap1\n      tag_109\n      jump\t// in\n    tag_108:\n      swap3\n      pop\n      pop\n      dup2\n      swap1\n      sstore\n      pop\n        /* \"contracts/4_CrowdFund.sol\":1226:1235  msg.value */\n      callvalue\n        /* \"contracts/4_CrowdFund.sol\":1211:1222  totalRaised */\n      0x03\n      0x00\n        /* \"contracts/4_CrowdFund.sol\":1211:1235  totalRaised += msg.value */\n      dup3\n      dup3\n      sload\n      tag_110\n      swap2\n      swap1\n      tag_109\n      jump\t// in\n    tag_110:\n      swap3\n      pop\n      pop\n      dup2\n      swap1\n      sstore\n      pop\n        /* \"contracts/4_CrowdFund.sol\":1267:1271  goal */\n      sload(0x01)\n        /* \"contracts/4_CrowdFund.sol\":1252:1263  totalRaised */\n      sload(0x03)\n        /* \"contracts/4_CrowdFund.sol\":1252:1271  totalRaised >= goal */\n      lt\n        /* \"contracts/4_CrowdFund.sol\":1248:1318  if (totalRaised >= goal) {... */\n      tag_111\n      jumpi\n        /* \"contracts/4_CrowdFund.sol\":1302:1306  true */\n      0x01\n        /* \"contracts/4_CrowdFund.sol\":1288:1299  goalReached */\n      0x04\n      0x00\n        /* \"contracts/4_CrowdFund.sol\":1288:1306  goalReached = true */\n      0x0100\n      exp\n      dup2\n      sload\n      dup2\n      0xff\n      mul\n      not\n      and\n      swap1\n      dup4\n      iszero\n      iszero\n      mul\n      or\n      swap1\n      sstore\n      pop\n        /* \"contracts/4_CrowdFund.sol\":1248:1318  if (totalRaised >= goal) {... */\n    tag_111:\n        /* \"contracts/4_CrowdFund.sol\":1344:1354  msg.sender */\n      caller\n        /* \"contracts/4_CrowdFund.sol\":1335:1366  Donation(msg.sender, msg.value) */\n      0xffffffffffffffffffffffffffffffffffffffff\n      and\n      0x5d8bc849764969eb1bcc6d0a2f55999d0167c1ccec240a4f39cf664ca9c4148e\n        /* \"contracts/4_CrowdFund.sol\":1356:1365  msg.value */\n      callvalue\n        /* \"contracts/4_CrowdFund.sol\":1335:1366  Donation(msg.sender, msg.value) */\n      mload(0x40)\n      tag_112\n      swap2\n      swap1\n      tag_19\n      jump\t// in\n    tag_112:\n      mload(0x40)\n      dup1\n      swap2\n      sub\n      swap1\n      log2\n        /* \"contracts/4_CrowdFund.sol\":1051:1374  function donate() public payable beforeDeadline {... */\n      jump\t// out\n        /* \"#utility.yul\":7:84   */\n    tag_113:\n        /* \"#utility.yul\":44:51   */\n      0x00\n        /* \"#utility.yul\":73:78   */\n      dup2\n        /* \"#utility.yul\":62:78   */\n      swap1\n      pop\n        /* \"#utility.yul\":7:84   */\n      swap2\n      swap1\n      pop\n      jump\t// out\n        /* \"#utility.yul\":90:208   */\n    tag_114:\n        /* \"#utility.yul\":177:201   */\n      tag_146\n        /* \"#utility.yul\":195:200   */\n      dup2\n        /* \"#utility.yul\":177:201   */\n      tag_113\n      jump\t// in\n    tag_146:\n        /* \"#utility.yul\":172:175   */\n      dup3\n        /* \"#utility.yul\":165:202   */\n      mstore\n        /* \"#utility.yul\":90:208   */\n      pop\n      pop\n      jump\t// out\n        /* \"#utility.yul\":214:436   */\n    tag_19:\n        /* \"#utility.yul\":307:311   */\n      0x00\n        /* \"#utility.yul\":345:347   */\n      0x20\n        /* \"#utility.yul\":334:343   */\n      dup3\n        /* \"#utility.yul\":330:348   */\n      add\n        /* \"#utility.yul\":322:348   */\n      swap1\n      pop\n        /* \"#utility.yul\":358:429   */\n      tag_148\n        /* \"#utility.yul\":426:427   */\n      0x00\n        /* \"#utility.yul\":415:424   */\n      dup4\n        /* \"#utility.yul\":411:428   */\n      add\n        /* \"#utility.yul\":402:408   */\n      dup5\n        /* \"#utility.yul\":358:429   */\n      tag_114\n      jump\t// in\n    tag_148:\n        /* \"#utility.yul\":214:436   */\n      swap3\n      swap2\n      pop\n      pop\n      jump\t// out\n        /* \"#utility.yul\":523:640   */\n    tag_116:\n        /* \"#utility.yul\":632:633   */\n      0x00\n        /* \"#utility.yul\":629:630   */\n      0x00\n        /* \"#utility.yul\":622:634   */\n      revert\n        /* \"#utility.yul\":769:895   */\n    tag_118:\n        /* \"#utility.yul\":806:813   */\n      0x00\n        /* \"#utility.yul\":846:888   */\n      0xffffffffffffffffffffffffffffffffffffffff\n        /* \"#utility.yul\":839:844   */\n      dup3\n        /* \"#utility.yul\":835:889   */\n      and\n        /* \"#utility.yul\":824:889   */\n      swap1\n      pop\n        /* \"#utility.yul\":769:895   */\n      swap2\n      swap1\n      pop\n      jump\t// out\n        /* \"#utility.yul\":901:997   */\n    tag_119:\n        /* \"#utility.yul\":938:945   */\n      0x00\n        /* \"#utility.yul\":967:991   */\n      tag_154\n        /* \"#utility.yul\":985:990   */\n      dup3\n        /* \"#utility.yul\":967:991   */\n      tag_118\n      jump\t// in\n    tag_154:\n        /* \"#utility.yul\":956:991   */\n      swap1\n      pop\n        /* \"#utility.yul\":901:997   */\n      swap2\n      swap1\n      pop\n      jump\t// out\n        /* \"#utility.yul\":1003:1125   */\n    tag_120:\n        /* \"#utility.yul\":1076:1100   */\n      tag_156\n        /* \"#utility.yul\":1094:1099   */\n      dup2\n        /* \"#utility.yul\":1076:1100   */\n      tag_119\n      jump\t// in\n    tag_156:\n        /* \"#utility.yul\":1069:1074   */\n      dup2\n        /* \"#utility.yul\":1066:1101   */\n      eq\n        /* \"#utility.yul\":1056:1119   */\n      tag_157\n      jumpi\n        /* \"#utility.yul\":1115:1116   */\n      0x00\n        /* \"#utility.yul\":1112:1113   */\n      0x00\n        /* \"#utility.yul\":1105:1117   */\n      revert\n        /* \"#utility.yul\":1056:1119   */\n    tag_157:\n        /* \"#utility.yul\":1003:1125   */\n      pop\n      jump\t// out\n        /* \"#utility.yul\":1131:1270   */\n    tag_121:\n        /* \"#utility.yul\":1177:1182   */\n      0x00\n        /* \"#utility.yul\":1215:1221   */\n      dup2\n        /* \"#utility.yul\":1202:1222   */\n      calldataload\n        /* \"#utility.yul\":1193:1222   */\n      swap1\n      pop\n        /* \"#utility.yul\":1231:1264   */\n      tag_159\n        /* \"#utility.yul\":1258:1263   */\n      dup2\n        /* \"#utility.yul\":1231:1264   */\n      tag_120\n      jump\t// in\n    tag_159:\n        /* \"#utility.yul\":1131:1270   */\n      swap3\n      swap2\n      pop\n      pop\n      jump\t// out\n        /* \"#utility.yul\":1276:1605   */\n    tag_34:\n        /* \"#utility.yul\":1335:1341   */\n      0x00\n        /* \"#utility.yul\":1384:1386   */\n      0x20\n        /* \"#utility.yul\":1372:1381   */\n      dup3\n        /* \"#utility.yul\":1363:1370   */\n      dup5\n        /* \"#utility.yul\":1359:1382   */\n      sub\n        /* \"#utility.yul\":1355:1387   */\n      slt\n        /* \"#utility.yul\":1352:1471   */\n      iszero\n      tag_161\n      jumpi\n        /* \"#utility.yul\":1390:1469   */\n      tag_162\n      tag_116\n      jump\t// in\n    tag_162:\n        /* \"#utility.yul\":1352:1471   */\n    tag_161:\n        /* \"#utility.yul\":1510:1511   */\n      0x00\n        /* \"#utility.yul\":1535:1588   */\n      tag_163\n        /* \"#utility.yul\":1580:1587   */\n      dup5\n        /* \"#utility.yul\":1571:1577   */\n      dup3\n        /* \"#utility.yul\":1560:1569   */\n      dup6\n        /* \"#utility.yul\":1556:1578   */\n      add\n        /* \"#utility.yul\":1535:1588   */\n      tag_121\n      jump\t// in\n    tag_163:\n        /* \"#utility.yul\":1525:1588   */\n      swap2\n      pop\n        /* \"#utility.yul\":1481:1598   */\n      pop\n        /* \"#utility.yul\":1276:1605   */\n      swap3\n      swap2\n      pop\n      pop\n      jump\t// out\n        /* \"#utility.yul\":1611:1701   */\n    tag_122:\n        /* \"#utility.yul\":1645:1652   */\n      0x00\n        /* \"#utility.yul\":1688:1693   */\n      dup2\n        /* \"#utility.yul\":1681:1694   */\n      iszero\n        /* \"#utility.yul\":1674:1695   */\n      iszero\n        /* \"#utility.yul\":1663:1695   */\n      swap1\n      pop\n        /* \"#utility.yul\":1611:1701   */\n      swap2\n      swap1\n      pop\n      jump\t// out\n        /* \"#utility.yul\":1707:1816   */\n    tag_123:\n        /* \"#utility.yul\":1788:1809   */\n      tag_166\n        /* \"#utility.yul\":1803:1808   */\n      dup2\n        /* \"#utility.yul\":1788:1809   */\n      tag_122\n      jump\t// in\n    tag_166:\n        /* \"#utility.yul\":1783:1786   */\n      dup3\n        /* \"#utility.yul\":1776:1810   */\n      mstore\n        /* \"#utility.yul\":1707:1816   */\n      pop\n      pop\n      jump\t// out\n        /* \"#utility.yul\":1822:2032   */\n    tag_44:\n        /* \"#utility.yul\":1909:1913   */\n      0x00\n        /* \"#utility.yul\":1947:1949   */\n      0x20\n        /* \"#utility.yul\":1936:1945   */\n      dup3\n        /* \"#utility.yul\":1932:1950   */\n      add\n        /* \"#utility.yul\":1924:1950   */\n      swap1\n      pop\n        /* \"#utility.yul\":1960:2025   */\n      tag_168\n        /* \"#utility.yul\":2022:2023   */\n      0x00\n        /* \"#utility.yul\":2011:2020   */\n      dup4\n        /* \"#utility.yul\":2007:2024   */\n      add\n        /* \"#utility.yul\":1998:2004   */\n      dup5\n        /* \"#utility.yul\":1960:2025   */\n      tag_123\n      jump\t// in\n    tag_168:\n        /* \"#utility.yul\":1822:2032   */\n      swap3\n      swap2\n      pop\n      pop\n      jump\t// out\n        /* \"#utility.yul\":2038:2156   */\n    tag_124:\n        /* \"#utility.yul\":2125:2149   */\n      tag_170\n        /* \"#utility.yul\":2143:2148   */\n      dup2\n        /* \"#utility.yul\":2125:2149   */\n      tag_119\n      jump\t// in\n    tag_170:\n        /* \"#utility.yul\":2120:2123   */\n      dup3\n        /* \"#utility.yul\":2113:2150   */\n      mstore\n        /* \"#utility.yul\":2038:2156   */\n      pop\n      pop\n      jump\t// out\n        /* \"#utility.yul\":2162:2384   */\n    tag_49:\n        /* \"#utility.yul\":2255:2259   */\n      0x00\n        /* \"#utility.yul\":2293:2295   */\n      0x20\n        /* \"#utility.yul\":2282:2291   */\n      dup3\n        /* \"#utility.yul\":2278:2296   */\n      add\n        /* \"#utility.yul\":2270:2296   */\n      swap1\n      pop\n        /* \"#utility.yul\":2306:2377   */\n      tag_172\n        /* \"#utility.yul\":2374:2375   */\n      0x00\n        /* \"#utility.yul\":2363:2372   */\n      dup4\n        /* \"#utility.yul\":2359:2376   */\n      add\n        /* \"#utility.yul\":2350:2356   */\n      dup5\n        /* \"#utility.yul\":2306:2377   */\n      tag_124\n      jump\t// in\n    tag_172:\n        /* \"#utility.yul\":2162:2384   */\n      swap3\n      swap2\n      pop\n      pop\n      jump\t// out\n        /* \"#utility.yul\":2390:2559   */\n    tag_125:\n        /* \"#utility.yul\":2474:2485   */\n      0x00\n        /* \"#utility.yul\":2508:2514   */\n      dup3\n        /* \"#utility.yul\":2503:2506   */\n      dup3\n        /* \"#utility.yul\":2496:2515   */\n      mstore\n        /* \"#utility.yul\":2548:2552   */\n      0x20\n        /* \"#utility.yul\":2543:2546   */\n      dup3\n        /* \"#utility.yul\":2539:2553   */\n      add\n        /* \"#utility.yul\":2524:2553   */\n      swap1\n      pop\n        /* \"#utility.yul\":2390:2559   */\n      swap3\n      swap2\n      pop\n      pop\n      jump\t// out\n        /* \"#utility.yul\":2565:2733   */\n    tag_126:\n        /* \"#utility.yul\":2705:2725   */\n      0x596f7520617265206e6f74206f776e65722e0000000000000000000000000000\n        /* \"#utility.yul\":2701:2702   */\n      0x00\n        /* \"#utility.yul\":2693:2699   */\n      dup3\n        /* \"#utility.yul\":2689:2703   */\n      add\n        /* \"#utility.yul\":2682:2726   */\n      mstore\n        /* \"#utility.yul\":2565:2733   */\n      pop\n      jump\t// out\n        /* \"#utility.yul\":2739:3105   */\n    tag_127:\n        /* \"#utility.yul\":2881:2884   */\n      0x00\n        /* \"#utility.yul\":2902:2969   */\n      tag_176\n        /* \"#utility.yul\":2966:2968   */\n      0x12\n        /* \"#utility.yul\":2961:2964   */\n      dup4\n        /* \"#utility.yul\":2902:2969   */\n      tag_125\n      jump\t// in\n    tag_176:\n        /* \"#utility.yul\":2895:2969   */\n      swap2\n      pop\n        /* \"#utility.yul\":2978:3071   */\n      tag_177\n        /* \"#utility.yul\":3067:3070   */\n      dup3\n        /* \"#utility.yul\":2978:3071   */\n      tag_126\n      jump\t// in\n    tag_177:\n        /* \"#utility.yul\":3096:3098   */\n      0x20\n        /* \"#utility.yul\":3091:3094   */\n      dup3\n        /* \"#utility.yul\":3087:3099   */\n      add\n        /* \"#utility.yul\":3080:3099   */\n      swap1\n      pop\n        /* \"#utility.yul\":2739:3105   */\n      swap2\n      swap1\n      pop\n      jump\t// out\n        /* \"#utility.yul\":3111:3530   */\n    tag_68:\n        /* \"#utility.yul\":3277:3281   */\n      0x00\n        /* \"#utility.yul\":3315:3317   */\n      0x20\n        /* \"#utility.yul\":3304:3313   */\n      dup3\n        /* \"#utility.yul\":3300:3318   */\n      add\n        /* \"#utility.yul\":3292:3318   */\n      swap1\n      pop\n        /* \"#utility.yul\":3364:3373   */\n      dup2\n        /* \"#utility.yul\":3358:3362   */\n      dup2\n        /* \"#utility.yul\":3354:3374   */\n      sub\n        /* \"#utility.yul\":3350:3351   */\n      0x00\n        /* \"#utility.yul\":3339:3348   */\n      dup4\n        /* \"#utility.yul\":3335:3352   */\n      add\n        /* \"#utility.yul\":3328:3375   */\n      mstore\n        /* \"#utility.yul\":3392:3523   */\n      tag_179\n        /* \"#utility.yul\":3518:3522   */\n      dup2\n        /* \"#utility.yul\":3392:3523   */\n      tag_127\n      jump\t// in\n    tag_179:\n        /* \"#utility.yul\":3384:3523   */\n      swap1\n      pop\n        /* \"#utility.yul\":3111:3530   */\n      swap2\n      swap1\n      pop\n      jump\t// out\n        /* \"#utility.yul\":3536:3709   */\n    tag_128:\n        /* \"#utility.yul\":3676:3701   */\n      0x43616d706169676e206e6f742079657420656e6465642e000000000000000000\n        /* \"#utility.yul\":3672:3673   */\n      0x00\n        /* \"#utility.yul\":3664:3670   */\n      dup3\n        /* \"#utility.yul\":3660:3674   */\n      add\n        /* \"#utility.yul\":3653:3702   */\n      mstore\n        /* \"#utility.yul\":3536:3709   */\n      pop\n      jump\t// out\n        /* \"#utility.yul\":3715:4081   */\n    tag_129:\n        /* \"#utility.yul\":3857:3860   */\n      0x00\n        /* \"#utility.yul\":3878:3945   */\n      tag_182\n        /* \"#utility.yul\":3942:3944   */\n      0x17\n        /* \"#utility.yul\":3937:3940   */\n      dup4\n        /* \"#utility.yul\":3878:3945   */\n      tag_125\n      jump\t// in\n    tag_182:\n        /* \"#utility.yul\":3871:3945   */\n      swap2\n      pop\n        /* \"#utility.yul\":3954:4047   */\n      tag_183\n        /* \"#utility.yul\":4043:4046   */\n      dup3\n        /* \"#utility.yul\":3954:4047   */\n      tag_128\n      jump\t// in\n    tag_183:\n        /* \"#utility.yul\":4072:4074   */\n      0x20\n        /* \"#utility.yul\":4067:4070   */\n      dup3\n        /* \"#utility.yul\":4063:4075   */\n      add\n        /* \"#utility.yul\":4056:4075   */\n      swap1\n      pop\n        /* \"#utility.yul\":3715:4081   */\n      swap2\n      swap1\n      pop\n      jump\t// out\n        /* \"#utility.yul\":4087:4506   */\n    tag_72:\n        /* \"#utility.yul\":4253:4257   */\n      0x00\n        /* \"#utility.yul\":4291:4293   */\n      0x20\n        /* \"#utility.yul\":4280:4289   */\n      dup3\n        /* \"#utility.yul\":4276:4294   */\n      add\n        /* \"#utility.yul\":4268:4294   */\n      swap1\n      pop\n        /* \"#utility.yul\":4340:4349   */\n      dup2\n        /* \"#utility.yul\":4334:4338   */\n      dup2\n        /* \"#utility.yul\":4330:4350   */\n      sub\n        /* \"#utility.yul\":4326:4327   */\n      0x00\n        /* \"#utility.yul\":4315:4324   */\n      dup4\n        /* \"#utility.yul\":4311:4328   */\n      add\n        /* \"#utility.yul\":4304:4351   */\n      mstore\n        /* \"#utility.yul\":4368:4499   */\n      tag_185\n        /* \"#utility.yul\":4494:4498   */\n      dup2\n        /* \"#utility.yul\":4368:4499   */\n      tag_129\n      jump\t// in\n    tag_185:\n        /* \"#utility.yul\":4360:4499   */\n      swap1\n      pop\n        /* \"#utility.yul\":4087:4506   */\n      swap2\n      swap1\n      pop\n      jump\t// out\n        /* \"#utility.yul\":4512:4678   */\n    tag_130:\n        /* \"#utility.yul\":4652:4670   */\n      0x476f616c206e6f74207265616368656400000000000000000000000000000000\n        /* \"#utility.yul\":4648:4649   */\n      0x00\n        /* \"#utility.yul\":4640:4646   */\n      dup3\n        /* \"#utility.yul\":4636:4650   */\n      add\n        /* \"#utility.yul\":4629:4671   */\n      mstore\n        /* \"#utility.yul\":4512:4678   */\n      pop\n      jump\t// out\n        /* \"#utility.yul\":4684:5050   */\n    tag_131:\n        /* \"#utility.yul\":4826:4829   */\n      0x00\n        /* \"#utility.yul\":4847:4914   */\n      tag_188\n        /* \"#utility.yul\":4911:4913   */\n      0x10\n        /* \"#utility.yul\":4906:4909   */\n      dup4\n        /* \"#utility.yul\":4847:4914   */\n      tag_125\n      jump\t// in\n    tag_188:\n        /* \"#utility.yul\":4840:4914   */\n      swap2\n      pop\n        /* \"#utility.yul\":4923:5016   */\n      tag_189\n        /* \"#utility.yul\":5012:5015   */\n      dup3\n        /* \"#utility.yul\":4923:5016   */\n      tag_130\n      jump\t// in\n    tag_189:\n        /* \"#utility.yul\":5041:5043   */\n      0x20\n        /* \"#utility.yul\":5036:5039   */\n      dup3\n        /* \"#utility.yul\":5032:5044   */\n      add\n        /* \"#utility.yul\":5025:5044   */\n      swap1\n      pop\n        /* \"#utility.yul\":4684:5050   */\n      swap2\n      swap1\n      pop\n      jump\t// out\n        /* \"#utility.yul\":5056:5475   */\n    tag_76:\n        /* \"#utility.yul\":5222:5226   */\n      0x00\n        /* \"#utility.yul\":5260:5262   */\n      0x20\n        /* \"#utility.yul\":5249:5258   */\n      dup3\n        /* \"#utility.yul\":5245:5263   */\n      add\n        /* \"#utility.yul\":5237:5263   */\n      swap1\n      pop\n        /* \"#utility.yul\":5309:5318   */\n      dup2\n        /* \"#utility.yul\":5303:5307   */\n      dup2\n        /* \"#utility.yul\":5299:5319   */\n      sub\n        /* \"#utility.yul\":5295:5296   */\n      0x00\n        /* \"#utility.yul\":5284:5293   */\n      dup4\n        /* \"#utility.yul\":5280:5297   */\n      add\n        /* \"#utility.yul\":5273:5320   */\n      mstore\n        /* \"#utility.yul\":5337:5468   */\n      tag_191\n        /* \"#utility.yul\":5463:5467   */\n      dup2\n        /* \"#utility.yul\":5337:5468   */\n      tag_131\n      jump\t// in\n    tag_191:\n        /* \"#utility.yul\":5329:5468   */\n      swap1\n      pop\n        /* \"#utility.yul\":5056:5475   */\n      swap2\n      swap1\n      pop\n      jump\t// out\n        /* \"#utility.yul\":5481:5648   */\n    tag_132:\n        /* \"#utility.yul\":5621:5640   */\n      0x416c72656164792077697468647261776e000000000000000000000000000000\n        /* \"#utility.yul\":5617:5618   */\n      0x00\n        /* \"#utility.yul\":5609:5615   */\n      dup3\n        /* \"#utility.yul\":5605:5619   */\n      add\n        /* \"#utility.yul\":5598:5641   */\n      mstore\n        /* \"#utility.yul\":5481:5648   */\n      pop\n      jump\t// out\n        /* \"#utility.yul\":5654:6020   */\n    tag_133:\n        /* \"#utility.yul\":5796:5799   */\n      0x00\n        /* \"#utility.yul\":5817:5884   */\n      tag_194\n        /* \"#utility.yul\":5881:5883   */\n      0x11\n        /* \"#utility.yul\":5876:5879   */\n      dup4\n        /* \"#utility.yul\":5817:5884   */\n      tag_125\n      jump\t// in\n    tag_194:\n        /* \"#utility.yul\":5810:5884   */\n      swap2\n      pop\n        /* \"#utility.yul\":5893:5986   */\n      tag_195\n        /* \"#utility.yul\":5982:5985   */\n      dup3\n        /* \"#utility.yul\":5893:5986   */\n      tag_132\n      jump\t// in\n    tag_195:\n        /* \"#utility.yul\":6011:6013   */\n      0x20\n        /* \"#utility.yul\":6006:6009   */\n      dup3\n        /* \"#utility.yul\":6002:6014   */\n      add\n        /* \"#utility.yul\":5995:6014   */\n      swap1\n      pop\n        /* \"#utility.yul\":5654:6020   */\n      swap2\n      swap1\n      pop\n      jump\t// out\n        /* \"#utility.yul\":6026:6445   */\n    tag_79:\n        /* \"#utility.yul\":6192:6196   */\n      0x00\n        /* \"#utility.yul\":6230:6232   */\n      0x20\n        /* \"#utility.yul\":6219:6228   */\n      dup3\n        /* \"#utility.yul\":6215:6233   */\n      add\n        /* \"#utility.yul\":6207:6233   */\n      swap1\n      pop\n        /* \"#utility.yul\":6279:6288   */\n      dup2\n        /* \"#utility.yul\":6273:6277   */\n      dup2\n        /* \"#utility.yul\":6269:6289   */\n      sub\n        /* \"#utility.yul\":6265:6266   */\n      0x00\n        /* \"#utility.yul\":6254:6263   */\n      dup4\n        /* \"#utility.yul\":6250:6267   */\n      add\n        /* \"#utility.yul\":6243:6290   */\n      mstore\n        /* \"#utility.yul\":6307:6438   */\n      tag_197\n        /* \"#utility.yul\":6433:6437   */\n      dup2\n        /* \"#utility.yul\":6307:6438   */\n      tag_133\n      jump\t// in\n    tag_197:\n        /* \"#utility.yul\":6299:6438   */\n      swap1\n      pop\n        /* \"#utility.yul\":6026:6445   */\n      swap2\n      swap1\n      pop\n      jump\t// out\n        /* \"#utility.yul\":6451:6630   */\n    tag_134:\n        /* \"#utility.yul\":6591:6622   */\n      0x476f616c2077617320726561636865642c206e6f20726566756e647321000000\n        /* \"#utility.yul\":6587:6588   */\n      0x00\n        /* \"#utility.yul\":6579:6585   */\n      dup3\n        /* \"#utility.yul\":6575:6589   */\n      add\n        /* \"#utility.yul\":6568:6623   */\n      mstore\n        /* \"#utility.yul\":6451:6630   */\n      pop\n      jump\t// out\n        /* \"#utility.yul\":6636:7002   */\n    tag_135:\n        /* \"#utility.yul\":6778:6781   */\n      0x00\n        /* \"#utility.yul\":6799:6866   */\n      tag_200\n        /* \"#utility.yul\":6863:6865   */\n      0x1d\n        /* \"#utility.yul\":6858:6861   */\n      dup4\n        /* \"#utility.yul\":6799:6866   */\n      tag_125\n      jump\t// in\n    tag_200:\n        /* \"#utility.yul\":6792:6866   */\n      swap2\n      pop\n        /* \"#utility.yul\":6875:6968   */\n      tag_201\n        /* \"#utility.yul\":6964:6967   */\n      dup3\n        /* \"#utility.yul\":6875:6968   */\n      tag_134\n      jump\t// in\n    tag_201:\n        /* \"#utility.yul\":6993:6995   */\n      0x20\n        /* \"#utility.yul\":6988:6991   */\n      dup3\n        /* \"#utility.yul\":6984:6996   */\n      add\n        /* \"#utility.yul\":6977:6996   */\n      swap1\n      pop\n        /* \"#utility.yul\":6636:7002   */\n      swap2\n      swap1\n      pop\n      jump\t// out\n        /* \"#utility.yul\":7008:7427   */\n    tag_89:\n        /* \"#utility.yul\":7174:7178   */\n      0x00\n        /* \"#utility.yul\":7212:7214   */\n      0x20\n        /* \"#utility.yul\":7201:7210   */\n      dup3\n        /* \"#utility.yul\":7197:7215   */\n      add\n        /* \"#utility.yul\":7189:7215   */\n      swap1\n      pop\n        /* \"#utility.yul\":7261:7270   */\n      dup2\n        /* \"#utility.yul\":7255:7259   */\n      dup2\n        /* \"#utility.yul\":7251:7271   */\n      sub\n        /* \"#utility.yul\":7247:7248   */\n      0x00\n        /* \"#utility.yul\":7236:7245   */\n      dup4\n        /* \"#utility.yul\":7232:7249   */\n      add\n        /* \"#utility.yul\":7225:7272   */\n      mstore\n        /* \"#utility.yul\":7289:7420   */\n      tag_203\n        /* \"#utility.yul\":7415:7419   */\n      dup2\n        /* \"#utility.yul\":7289:7420   */\n      tag_135\n      jump\t// in\n    tag_203:\n        /* \"#utility.yul\":7281:7420   */\n      swap1\n      pop\n        /* \"#utility.yul\":7008:7427   */\n      swap2\n      swap1\n      pop\n      jump\t// out\n        /* \"#utility.yul\":7433:7600   */\n    tag_136:\n        /* \"#utility.yul\":7573:7592   */\n      0x4e6f7468696e6720746f20726566756e64000000000000000000000000000000\n        /* \"#utility.yul\":7569:7570   */\n      0x00\n        /* \"#utility.yul\":7561:7567   */\n      dup3\n        /* \"#utility.yul\":7557:7571   */\n      add\n        /* \"#utility.yul\":7550:7593   */\n      mstore\n        /* \"#utility.yul\":7433:7600   */\n      pop\n      jump\t// out\n        /* \"#utility.yul\":7606:7972   */\n    tag_137:\n        /* \"#utility.yul\":7748:7751   */\n      0x00\n        /* \"#utility.yul\":7769:7836   */\n      tag_206\n        /* \"#utility.yul\":7833:7835   */\n      0x11\n        /* \"#utility.yul\":7828:7831   */\n      dup4\n        /* \"#utility.yul\":7769:7836   */\n      tag_125\n      jump\t// in\n    tag_206:\n        /* \"#utility.yul\":7762:7836   */\n      swap2\n      pop\n        /* \"#utility.yul\":7845:7938   */\n      tag_207\n        /* \"#utility.yul\":7934:7937   */\n      dup3\n        /* \"#utility.yul\":7845:7938   */\n      tag_136\n      jump\t// in\n    tag_207:\n        /* \"#utility.yul\":7963:7965   */\n      0x20\n        /* \"#utility.yul\":7958:7961   */\n      dup3\n        /* \"#utility.yul\":7954:7966   */\n      add\n        /* \"#utility.yul\":7947:7966   */\n      swap1\n      pop\n        /* \"#utility.yul\":7606:7972   */\n      swap2\n      swap1\n      pop\n      jump\t// out\n        /* \"#utility.yul\":7978:8397   */\n    tag_92:\n        /* \"#utility.yul\":8144:8148   */\n      0x00\n        /* \"#utility.yul\":8182:8184   */\n      0x20\n        /* \"#utility.yul\":8171:8180   */\n      dup3\n        /* \"#utility.yul\":8167:8185   */\n      add\n        /* \"#utility.yul\":8159:8185   */\n      swap1\n      pop\n        /* \"#utility.yul\":8231:8240   */\n      dup2\n        /* \"#utility.yul\":8225:8229   */\n      dup2\n        /* \"#utility.yul\":8221:8241   */\n      sub\n        /* \"#utility.yul\":8217:8218   */\n      0x00\n        /* \"#utility.yul\":8206:8215   */\n      dup4\n        /* \"#utility.yul\":8202:8219   */\n      add\n        /* \"#utility.yul\":8195:8242   */\n      mstore\n        /* \"#utility.yul\":8259:8390   */\n      tag_209\n        /* \"#utility.yul\":8385:8389   */\n      dup2\n        /* \"#utility.yul\":8259:8390   */\n      tag_137\n      jump\t// in\n    tag_209:\n        /* \"#utility.yul\":8251:8390   */\n      swap1\n      pop\n        /* \"#utility.yul\":7978:8397   */\n      swap2\n      swap1\n      pop\n      jump\t// out\n        /* \"#utility.yul\":8403:8583   */\n    tag_138:\n        /* \"#utility.yul\":8451:8528   */\n      0x4e487b7100000000000000000000000000000000000000000000000000000000\n        /* \"#utility.yul\":8448:8449   */\n      0x00\n        /* \"#utility.yul\":8441:8529   */\n      mstore\n        /* \"#utility.yul\":8548:8552   */\n      0x11\n        /* \"#utility.yul\":8545:8546   */\n      0x04\n        /* \"#utility.yul\":8538:8553   */\n      mstore\n        /* \"#utility.yul\":8572:8576   */\n      0x24\n        /* \"#utility.yul\":8569:8570   */\n      0x00\n        /* \"#utility.yul\":8562:8577   */\n      revert\n        /* \"#utility.yul\":8589:8783   */\n    tag_99:\n        /* \"#utility.yul\":8629:8633   */\n      0x00\n        /* \"#utility.yul\":8649:8669   */\n      tag_212\n        /* \"#utility.yul\":8667:8668   */\n      dup3\n        /* \"#utility.yul\":8649:8669   */\n      tag_113\n      jump\t// in\n    tag_212:\n        /* \"#utility.yul\":8644:8669   */\n      swap2\n      pop\n        /* \"#utility.yul\":8683:8703   */\n      tag_213\n        /* \"#utility.yul\":8701:8702   */\n      dup4\n        /* \"#utility.yul\":8683:8703   */\n      tag_113\n      jump\t// in\n    tag_213:\n        /* \"#utility.yul\":8678:8703   */\n      swap3\n      pop\n        /* \"#utility.yul\":8727:8728   */\n      dup3\n        /* \"#utility.yul\":8724:8725   */\n      dup3\n        /* \"#utility.yul\":8720:8729   */\n      sub\n        /* \"#utility.yul\":8712:8729   */\n      swap1\n      pop\n        /* \"#utility.yul\":8751:8752   */\n      dup2\n        /* \"#utility.yul\":8745:8749   */\n      dup2\n        /* \"#utility.yul\":8742:8753   */\n      gt\n        /* \"#utility.yul\":8739:8776   */\n      iszero\n      tag_214\n      jumpi\n        /* \"#utility.yul\":8756:8774   */\n      tag_215\n      tag_138\n      jump\t// in\n    tag_215:\n        /* \"#utility.yul\":8739:8776   */\n    tag_214:\n        /* \"#utility.yul\":8589:8783   */\n      swap3\n      swap2\n      pop\n      pop\n      jump\t// out\n        /* \"#utility.yul\":8789:8953   */\n    tag_139:\n        /* \"#utility.yul\":8929:8945   */\n      0x43616d706169676e20656e646564000000000000000000000000000000000000\n        /* \"#utility.yul\":8925:8926   */\n      0x00\n        /* \"#utility.yul\":8917:8923   */\n      dup3\n        /* \"#utility.yul\":8913:8927   */\n      add\n        /* \"#utility.yul\":8906:8946   */\n      mstore\n        /* \"#utility.yul\":8789:8953   */\n      pop\n      jump\t// out\n        /* \"#utility.yul\":8959:9325   */\n    tag_140:\n        /* \"#utility.yul\":9101:9104   */\n      0x00\n        /* \"#utility.yul\":9122:9189   */\n      tag_218\n        /* \"#utility.yul\":9186:9188   */\n      0x0e\n        /* \"#utility.yul\":9181:9184   */\n      dup4\n        /* \"#utility.yul\":9122:9189   */\n      tag_125\n      jump\t// in\n    tag_218:\n        /* \"#utility.yul\":9115:9189   */\n      swap2\n      pop\n        /* \"#utility.yul\":9198:9291   */\n      tag_219\n        /* \"#utility.yul\":9287:9290   */\n      dup3\n        /* \"#utility.yul\":9198:9291   */\n      tag_139\n      jump\t// in\n    tag_219:\n        /* \"#utility.yul\":9316:9318   */\n      0x20\n        /* \"#utility.yul\":9311:9314   */\n      dup3\n        /* \"#utility.yul\":9307:9319   */\n      add\n        /* \"#utility.yul\":9300:9319   */\n      swap1\n      pop\n        /* \"#utility.yul\":8959:9325   */\n      swap2\n      swap1\n      pop\n      jump\t// out\n        /* \"#utility.yul\":9331:9750   */\n    tag_103:\n        /* \"#utility.yul\":9497:9501   */\n      0x00\n        /* \"#utility.yul\":9535:9537   */\n      0x20\n        /* \"#utility.yul\":9524:9533   */\n      dup3\n        /* \"#utility.yul\":9520:9538   */\n      add\n        /* \"#utility.yul\":9512:9538   */\n      swap1\n      pop\n        /* \"#utility.yul\":9584:9593   */\n      dup2\n        /* \"#utility.yul\":9578:9582   */\n      dup2\n        /* \"#utility.yul\":9574:9594   */\n      sub\n        /* \"#utility.yul\":9570:9571   */\n      0x00\n        /* \"#utility.yul\":9559:9568   */\n      dup4\n        /* \"#utility.yul\":9555:9572   */\n      add\n        /* \"#utility.yul\":9548:9595   */\n      mstore\n        /* \"#utility.yul\":9612:9743   */\n      tag_221\n        /* \"#utility.yul\":9738:9742   */\n      dup2\n        /* \"#utility.yul\":9612:9743   */\n      tag_140\n      jump\t// in\n    tag_221:\n        /* \"#utility.yul\":9604:9743   */\n      swap1\n      pop\n        /* \"#utility.yul\":9331:9750   */\n      swap2\n      swap1\n      pop\n      jump\t// out\n        /* \"#utility.yul\":9756:9919   */\n    tag_141:\n        /* \"#utility.yul\":9896:9911   */\n      0x4d7573742073656e642045544800000000000000000000000000000000000000\n        /* \"#utility.yul\":9892:9893   */\n      0x00\n        /* \"#utility.yul\":9884:9890   */\n      dup3\n        /* \"#utility.yul\":9880:9894   */\n      add\n        /* \"#utility.yul\":9873:9912   */\n      mstore\n        /* \"#utility.yul\":9756:9919   */\n      pop\n      jump\t// out\n        /* \"#utility.yul\":9925:10291   */\n    tag_142:\n        /* \"#utility.yul\":10067:10070   */\n      0x00\n        /* \"#utility.yul\":10088:10155   */\n      tag_224\n        /* \"#utility.yul\":10152:10154   */\n      0x0d\n        /* \"#utility.yul\":10147:10150   */\n      dup4\n        /* \"#utility.yul\":10088:10155   */\n      tag_125\n      jump\t// in\n    tag_224:\n        /* \"#utility.yul\":10081:10155   */\n      swap2\n      pop\n        /* \"#utility.yul\":10164:10257   */\n      tag_225\n        /* \"#utility.yul\":10253:10256   */\n      dup3\n        /* \"#utility.yul\":10164:10257   */\n      tag_141\n      jump\t// in\n    tag_225:\n        /* \"#utility.yul\":10282:10284   */\n      0x20\n        /* \"#utility.yul\":10277:10280   */\n      dup3\n        /* \"#utility.yul\":10273:10285   */\n      add\n        /* \"#utility.yul\":10266:10285   */\n      swap1\n      pop\n        /* \"#utility.yul\":9925:10291   */\n      swap2\n      swap1\n      pop\n      jump\t// out\n        /* \"#utility.yul\":10297:10716   */\n    tag_107:\n        /* \"#utility.yul\":10463:10467   */\n      0x00\n        /* \"#utility.yul\":10501:10503   */\n      0x20\n        /* \"#utility.yul\":10490:10499   */\n      dup3\n        /* \"#utility.yul\":10486:10504   */\n      add\n        /* \"#utility.yul\":10478:10504   */\n      swap1\n      pop\n        /* \"#utility.yul\":10550:10559   */\n      dup2\n        /* \"#utility.yul\":10544:10548   */\n      dup2\n        /* \"#utility.yul\":10540:10560   */\n      sub\n        /* \"#utility.yul\":10536:10537   */\n      0x00\n        /* \"#utility.yul\":10525:10534   */\n      dup4\n        /* \"#utility.yul\":10521:10538   */\n      add\n        /* \"#utility.yul\":10514:10561   */\n      mstore\n        /* \"#utility.yul\":10578:10709   */\n      tag_227\n        /* \"#utility.yul\":10704:10708   */\n      dup2\n        /* \"#utility.yul\":10578:10709   */\n      tag_142\n      jump\t// in\n    tag_227:\n        /* \"#utility.yul\":10570:10709   */\n      swap1\n      pop\n        /* \"#utility.yul\":10297:10716   */\n      swap2\n      swap1\n      pop\n      jump\t// out\n        /* \"#utility.yul\":10722:10913   */\n    tag_109:\n        /* \"#utility.yul\":10762:10765   */\n      0x00\n        /* \"#utility.yul\":10781:10801   */\n      tag_229\n        /* \"#utility.yul\":10799:10800   */\n      dup3\n        /* \"#utility.yul\":10781:10801   */\n      tag_113\n      jump\t// in\n    tag_229:\n        /* \"#utility.yul\":10776:10801   */\n      swap2\n      pop\n        /* \"#utility.yul\":10815:10835   */\n      tag_230\n        /* \"#utility.yul\":10833:10834   */\n      dup4\n        /* \"#utility.yul\":10815:10835   */\n      tag_113\n      jump\t// in\n    tag_230:\n        /* \"#utility.yul\":10810:10835   */\n      swap3\n      pop\n        /* \"#utility.yul\":10858:10859   */\n      dup3\n        /* \"#utility.yul\":10855:10856   */\n      dup3\n        /* \"#utility.yul\":10851:10860   */\n      add\n        /* \"#utility.yul\":10844:10860   */\n      swap1\n      pop\n        /* \"#utility.yul\":10879:10882   */\n      dup1\n        /* \"#utility.yul\":10876:10877   */\n      dup3\n        /* \"#utility.yul\":10873:10883   */\n      gt\n        /* \"#utility.yul\":10870:10906   */\n      iszero\n      tag_231\n      jumpi\n        /* \"#utility.yul\":10886:10904   */\n      tag_232\n      tag_138\n      jump\t// in\n    tag_232:\n        /* \"#utility.yul\":10870:10906   */\n    tag_231:\n        /* \"#utility.yul\":10722:10913   */\n      swap3\n      swap2\n      pop\n      pop\n      jump\t// out\n\n    auxdata: 0xa264697066735822122095478bae5365fb24d7978e6c189247bd2831ecc06d275248a6ea3301a0ede82964736f6c634300081e0033\n}\n",
				"bytecode": {
					"linkReferences": {},
					"object": "608060405234801561000f575f5ffd5b50604051610fb0380380610fb0833981810160405281019061003191906100d3565b335f5f6101000a81548173ffffffffffffffffffffffffffffffffffffffff021916908373ffffffffffffffffffffffffffffffffffffffff16021790555081600181905550603c81610084919061013e565b4261008f919061017f565b60028190555050506101b2565b5f5ffd5b5f819050919050565b6100b2816100a0565b81146100bc575f5ffd5b50565b5f815190506100cd816100a9565b92915050565b5f5f604083850312156100e9576100e861009c565b5b5f6100f6858286016100bf565b9250506020610107858286016100bf565b9150509250929050565b7f4e487b71000000000000000000000000000000000000000000000000000000005f52601160045260245ffd5b5f610148826100a0565b9150610153836100a0565b9250828202610161816100a0565b9150828204841483151761017857610177610111565b5b5092915050565b5f610189826100a0565b9150610194836100a0565b92508282019050808211156101ac576101ab610111565b5b92915050565b610df1806101bf5f395ff3fe6080604052600436106100a6575f3560e01c80637d3d6522116100635780637d3d6522146101905780638da5cb5b146101ba578063ac307fcf146101e4578063c5c4744c1461020e578063c7e284b814610238578063ed88c68e14610262576100a6565b806312065fe0146100aa57806324600fc3146100d457806329dcb0cf146100ea578063401938831461011457806342e94c901461013e578063590e1ae31461017a575b5f5ffd5b3480156100b5575f5ffd5b506100be61026c565b6040516100cb91906108db565b60405180910390f35b3480156100df575f5ffd5b506100e8610273565b005b3480156100f5575f5ffd5b506100fe6104d8565b60405161010b91906108db565b60405180910390f35b34801561011f575f5ffd5b506101286104de565b60405161013591906108db565b60405180910390f35b348015610149575f5ffd5b50610164600480360381019061015f9190610952565b6104e4565b60405161017191906108db565b60405180910390f35b348015610185575f5ffd5b5061018e6104f9565b005b34801561019b575f5ffd5b506101a46106e7565b6040516101b19190610997565b60405180910390f35b3480156101c5575f5ffd5b506101ce6106f9565b6040516101db91906109bf565b60405180910390f35b3480156101ef575f5ffd5b506101f861071d565b6040516102059190610997565b60405180910390f35b348015610219575f5ffd5b50610222610730565b60405161022f91906108db565b60405180910390f35b348015610243575f5ffd5b5061024c610736565b60405161025991906108db565b60405180910390f35b61026a61075c565b005b5f47905090565b5f5f9054906101000a900473ffffffffffffffffffffffffffffffffffffffff1673ffffffffffffffffffffffffffffffffffffffff163373ffffffffffffffffffffffffffffffffffffffff1614610301576040517f08c379a00000000000000000000000000000000000000000000000000000000081526004016102f890610a32565b60405180910390fd5b600254421015610346576040517f08c379a000000000000000000000000000000000000000000000000000000000815260040161033d90610a9a565b60405180910390fd5b60045f9054906101000a900460ff16610394576040517f08c379a000000000000000000000000000000000000000000000000000000000815260040161038b90610b02565b60405180910390fd5b600460019054906101000a900460ff16156103e4576040517f08c379a00000000000000000000000000000000000000000000000000000000081526004016103db90610b6a565b60405180910390fd5b5f4790506001600460016101000a81548160ff0219169083151502179055505f5f9054906101000a900473ffffffffffffffffffffffffffffffffffffffff1673ffffffffffffffffffffffffffffffffffffffff166108fc8290811502906040515f60405180830381858888f19350505050158015610466573d5f5f3e3d5ffd5b505f5f9054906101000a900473ffffffffffffffffffffffffffffffffffffffff1673ffffffffffffffffffffffffffffffffffffffff167feaff4b37086828766ad3268786972c0cd24259d4c87a80f9d3963a3c3d999b0d826040516104cd91906108db565b60405180910390a250565b60025481565b60015481565b6005602052805f5260405f205f915090505481565b60025442101561053e576040517f08c379a000000000000000000000000000000000000000000000000000000000815260040161053590610a9a565b60405180910390fd5b60045f9054906101000a900460ff161561058d576040517f08c379a000000000000000000000000000000000000000000000000000000000815260040161058490610bd2565b60405180910390fd5b5f60055f3373ffffffffffffffffffffffffffffffffffffffff1673ffffffffffffffffffffffffffffffffffffffff1681526020019081526020015f205490505f8111610610576040517f08c379a000000000000000000000000000000000000000000000000000000000815260040161060790610c3a565b60405180910390fd5b5f60055f3373ffffffffffffffffffffffffffffffffffffffff1673ffffffffffffffffffffffffffffffffffffffff1681526020019081526020015f20819055503373ffffffffffffffffffffffffffffffffffffffff166108fc8290811502906040515f60405180830381858888f19350505050158015610695573d5f5f3e3d5ffd5b503373ffffffffffffffffffffffffffffffffffffffff167fd7dee2702d63ad89917b6a4da9981c90c4d24f8c2bdfd64c604ecae57d8d0651826040516106dc91906108db565b60405180910390a250565b60045f9054906101000a900460ff1681565b5f5f9054906101000a900473ffffffffffffffffffffffffffffffffffffffff1681565b600460019054906101000a900460ff1681565b60035481565b5f6002544210610748575f9050610759565b426002546107569190610c85565b90505b90565b60025442106107a0576040517f08c379a000000000000000000000000000000000000000000000000000000000815260040161079790610d02565b60405180910390fd5b5f34116107e2576040517f08c379a00000000000000000000000000000000000000000000000000000000081526004016107d990610d6a565b60405180910390fd5b3460055f3373ffffffffffffffffffffffffffffffffffffffff1673ffffffffffffffffffffffffffffffffffffffff1681526020019081526020015f205f82825461082e9190610d88565b925050819055503460035f8282546108469190610d88565b925050819055506001546003541061087357600160045f6101000a81548160ff0219169083151502179055505b3373ffffffffffffffffffffffffffffffffffffffff167f5d8bc849764969eb1bcc6d0a2f55999d0167c1ccec240a4f39cf664ca9c4148e346040516108b991906108db565b60405180910390a2565b5f819050919050565b6108d5816108c3565b82525050565b5f6020820190506108ee5f8301846108cc565b92915050565b5f5ffd5b5f73ffffffffffffffffffffffffffffffffffffffff82169050919050565b5f610921826108f8565b9050919050565b61093181610917565b811461093b575f5ffd5b50565b5f8135905061094c81610928565b92915050565b5f60208284031215610967576109666108f4565b5b5f6109748482850161093e565b91505092915050565b5f8115159050919050565b6109918161097d565b82525050565b5f6020820190506109aa5f830184610988565b92915050565b6109b981610917565b82525050565b5f6020820190506109d25f8301846109b0565b92915050565b5f82825260208201905092915050565b7f596f7520617265206e6f74206f776e65722e00000000000000000000000000005f82015250565b5f610a1c6012836109d8565b9150610a27826109e8565b602082019050919050565b5f6020820190508181035f830152610a4981610a10565b9050919050565b7f43616d706169676e206e6f742079657420656e6465642e0000000000000000005f82015250565b5f610a846017836109d8565b9150610a8f82610a50565b602082019050919050565b5f6020820190508181035f830152610ab181610a78565b9050919050565b7f476f616c206e6f742072656163686564000000000000000000000000000000005f82015250565b5f610aec6010836109d8565b9150610af782610ab8565b602082019050919050565b5f6020820190508181035f830152610b1981610ae0565b9050919050565b7f416c72656164792077697468647261776e0000000000000000000000000000005f82015250565b5f610b546011836109d8565b9150610b5f82610b20565b602082019050919050565b5f6020820190508181035f830152610b8181610b48565b9050919050565b7f476f616c2077617320726561636865642c206e6f20726566756e6473210000005f82015250565b5f610bbc601d836109d8565b9150610bc782610b88565b602082019050919050565b5f6020820190508181035f830152610be981610bb0565b9050919050565b7f4e6f7468696e6720746f20726566756e640000000000000000000000000000005f82015250565b5f610c246011836109d8565b9150610c2f82610bf0565b602082019050919050565b5f6020820190508181035f830152610c5181610c18565b9050919050565b7f4e487b71000000000000000000000000000000000000000000000000000000005f52601160045260245ffd5b5f610c8f826108c3565b9150610c9a836108c3565b9250828203905081811115610cb257610cb1610c58565b5b92915050565b7f43616d706169676e20656e6465640000000000000000000000000000000000005f82015250565b5f610cec600e836109d8565b9150610cf782610cb8565b602082019050919050565b5f6020820190508181035f830152610d1981610ce0565b9050919050565b7f4d7573742073656e6420455448000000000000000000000000000000000000005f82015250565b5f610d54600d836109d8565b9150610d5f82610d20565b602082019050919050565b5f6020820190508181035f830152610d8181610d48565b9050919050565b5f610d92826108c3565b9150610d9d836108c3565b9250828201905080821115610db557610db4610c58565b5b9291505056fea264697066735822122095478bae5365fb24d7978e6c189247bd2831ecc06d275248a6ea3301a0ede82964736f6c634300081e0033",
					"opcodes": "PUSH1 0x80 PUSH1 0x40 MSTORE CALLVALUE DUP1 ISZERO PUSH2 0xF JUMPI PUSH0 PUSH0 REVERT JUMPDEST POP PUSH1 0x40 MLOAD PUSH2 0xFB0 CODESIZE SUB DUP1 PUSH2 0xFB0 DUP4 CODECOPY DUP2 DUP2 ADD PUSH1 0x40 MSTORE DUP2 ADD SWAP1 PUSH2 0x31 SWAP2 SWAP1 PUSH2 0xD3 JUMP JUMPDEST CALLER PUSH0 PUSH0 PUSH2 0x100 EXP DUP2 SLOAD DUP2 PUSH20 0xFFFFFFFFFFFFFFFFFFFFFFFFFFFFFFFFFFFFFFFF MUL NOT AND SWAP1 DUP4 PUSH20 0xFFFFFFFFFFFFFFFFFFFFFFFFFFFFFFFFFFFFFFFF AND MUL OR SWAP1 SSTORE POP DUP2 PUSH1 0x1 DUP2 SWAP1 SSTORE POP PUSH1 0x3C DUP2 PUSH2 0x84 SWAP2 SWAP1 PUSH2 0x13E JUMP JUMPDEST TIMESTAMP PUSH2 0x8F SWAP2 SWAP1 PUSH2 0x17F JUMP JUMPDEST PUSH1 0x2 DUP2 SWAP1 SSTORE POP POP POP PUSH2 0x1B2 JUMP JUMPDEST PUSH0 PUSH0 REVERT JUMPDEST PUSH0 DUP2 SWAP1 POP SWAP2 SWAP1 POP JUMP JUMPDEST PUSH2 0xB2 DUP2 PUSH2 0xA0 JUMP JUMPDEST DUP2 EQ PUSH2 0xBC JUMPI PUSH0 PUSH0 REVERT JUMPDEST POP JUMP JUMPDEST PUSH0 DUP2 MLOAD SWAP1 POP PUSH2 0xCD DUP2 PUSH2 0xA9 JUMP JUMPDEST SWAP3 SWAP2 POP POP JUMP JUMPDEST PUSH0 PUSH0 PUSH1 0x40 DUP4 DUP6 SUB SLT ISZERO PUSH2 0xE9 JUMPI PUSH2 0xE8 PUSH2 0x9C JUMP JUMPDEST JUMPDEST PUSH0 PUSH2 0xF6 DUP6 DUP3 DUP7 ADD PUSH2 0xBF JUMP JUMPDEST SWAP3 POP POP PUSH1 0x20 PUSH2 0x107 DUP6 DUP3 DUP7 ADD PUSH2 0xBF JUMP JUMPDEST SWAP2 POP POP SWAP3 POP SWAP3 SWAP1 POP JUMP JUMPDEST PUSH32 0x4E487B7100000000000000000000000000000000000000000000000000000000 PUSH0 MSTORE PUSH1 0x11 PUSH1 0x4 MSTORE PUSH1 0x24 PUSH0 REVERT JUMPDEST PUSH0 PUSH2 0x148 DUP3 PUSH2 0xA0 JUMP JUMPDEST SWAP2 POP PUSH2 0x153 DUP4 PUSH2 0xA0 JUMP JUMPDEST SWAP3 POP DUP3 DUP3 MUL PUSH2 0x161 DUP2 PUSH2 0xA0 JUMP JUMPDEST SWAP2 POP DUP3 DUP3 DIV DUP5 EQ DUP4 ISZERO OR PUSH2 0x178 JUMPI PUSH2 0x177 PUSH2 0x111 JUMP JUMPDEST JUMPDEST POP SWAP3 SWAP2 POP POP JUMP JUMPDEST PUSH0 PUSH2 0x189 DUP3 PUSH2 0xA0 JUMP JUMPDEST SWAP2 POP PUSH2 0x194 DUP4 PUSH2 0xA0 JUMP JUMPDEST SWAP3 POP DUP3 DUP3 ADD SWAP1 POP DUP1 DUP3 GT ISZERO PUSH2 0x1AC JUMPI PUSH2 0x1AB PUSH2 0x111 JUMP JUMPDEST JUMPDEST SWAP3 SWAP2 POP POP JUMP JUMPDEST PUSH2 0xDF1 DUP1 PUSH2 0x1BF PUSH0 CODECOPY PUSH0 RETURN INVALID PUSH1 0x80 PUSH1 0x40 MSTORE PUSH1 0x4 CALLDATASIZE LT PUSH2 0xA6 JUMPI PUSH0 CALLDATALOAD PUSH1 0xE0 SHR DUP1 PUSH4 0x7D3D6522 GT PUSH2 0x63 JUMPI DUP1 PUSH4 0x7D3D6522 EQ PUSH2 0x190 JUMPI DUP1 PUSH4 0x8DA5CB5B EQ PUSH2 0x1BA JUMPI DUP1 PUSH4 0xAC307FCF EQ PUSH2 0x1E4 JUMPI DUP1 PUSH4 0xC5C4744C EQ PUSH2 0x20E JUMPI DUP1 PUSH4 0xC7E284B8 EQ PUSH2 0x238 JUMPI DUP1 PUSH4 0xED88C68E EQ PUSH2 0x262 JUMPI PUSH2 0xA6 JUMP JUMPDEST DUP1 PUSH4 0x12065FE0 EQ PUSH2 0xAA JUMPI DUP1 PUSH4 0x24600FC3 EQ PUSH2 0xD4 JUMPI DUP1 PUSH4 0x29DCB0CF EQ PUSH2 0xEA JUMPI DUP1 PUSH4 0x40193883 EQ PUSH2 0x114 JUMPI DUP1 PUSH4 0x42E94C90 EQ PUSH2 0x13E JUMPI DUP1 PUSH4 0x590E1AE3 EQ PUSH2 0x17A JUMPI JUMPDEST PUSH0 PUSH0 REVERT JUMPDEST CALLVALUE DUP1 ISZERO PUSH2 0xB5 JUMPI PUSH0 PUSH0 REVERT JUMPDEST POP PUSH2 0xBE PUSH2 0x26C JUMP JUMPDEST PUSH1 0x40 MLOAD PUSH2 0xCB SWAP2 SWAP1 PUSH2 0x8DB JUMP JUMPDEST PUSH1 0x40 MLOAD DUP1 SWAP2 SUB SWAP1 RETURN JUMPDEST CALLVALUE DUP1 ISZERO PUSH2 0xDF JUMPI PUSH0 PUSH0 REVERT JUMPDEST POP PUSH2 0xE8 PUSH2 0x273 JUMP JUMPDEST STOP JUMPDEST CALLVALUE DUP1 ISZERO PUSH2 0xF5 JUMPI PUSH0 PUSH0 REVERT JUMPDEST POP PUSH2 0xFE PUSH2 0x4D8 JUMP JUMPDEST PUSH1 0x40 MLOAD PUSH2 0x10B SWAP2 SWAP1 PUSH2 0x8DB JUMP JUMPDEST PUSH1 0x40 MLOAD DUP1 SWAP2 SUB SWAP1 RETURN JUMPDEST CALLVALUE DUP1 ISZERO PUSH2 0x11F JUMPI PUSH0 PUSH0 REVERT JUMPDEST POP PUSH2 0x128 PUSH2 0x4DE JUMP JUMPDEST PUSH1 0x40 MLOAD PUSH2 0x135 SWAP2 SWAP1 PUSH2 0x8DB JUMP JUMPDEST PUSH1 0x40 MLOAD DUP1 SWAP2 SUB SWAP1 RETURN JUMPDEST CALLVALUE DUP1 ISZERO PUSH2 0x149 JUMPI PUSH0 PUSH0 REVERT JUMPDEST POP PUSH2 0x164 PUSH1 0x4 DUP1 CALLDATASIZE SUB DUP2 ADD SWAP1 PUSH2 0x15F SWAP2 SWAP1 PUSH2 0x952 JUMP JUMPDEST PUSH2 0x4E4 JUMP JUMPDEST PUSH1 0x40 MLOAD PUSH2 0x171 SWAP2 SWAP1 PUSH2 0x8DB JUMP JUMPDEST PUSH1 0x40 MLOAD DUP1 SWAP2 SUB SWAP1 RETURN JUMPDEST CALLVALUE DUP1 ISZERO PUSH2 0x185 JUMPI PUSH0 PUSH0 REVERT JUMPDEST POP PUSH2 0x18E PUSH2 0x4F9 JUMP JUMPDEST STOP JUMPDEST CALLVALUE DUP1 ISZERO PUSH2 0x19B JUMPI PUSH0 PUSH0 REVERT JUMPDEST POP PUSH2 0x1A4 PUSH2 0x6E7 JUMP JUMPDEST PUSH1 0x40 MLOAD PUSH2 0x1B1 SWAP2 SWAP1 PUSH2 0x997 JUMP JUMPDEST PUSH1 0x40 MLOAD DUP1 SWAP2 SUB SWAP1 RETURN JUMPDEST CALLVALUE DUP1 ISZERO PUSH2 0x1C5 JUMPI PUSH0 PUSH0 REVERT JUMPDEST POP PUSH2 0x1CE PUSH2 0x6F9 JUMP JUMPDEST PUSH1 0x40 MLOAD PUSH2 0x1DB SWAP2 SWAP1 PUSH2 0x9BF JUMP JUMPDEST PUSH1 0x40 MLOAD DUP1 SWAP2 SUB SWAP1 RETURN JUMPDEST CALLVALUE DUP1 ISZERO PUSH2 0x1EF JUMPI PUSH0 PUSH0 REVERT JUMPDEST POP PUSH2 0x1F8 PUSH2 0x71D JUMP JUMPDEST PUSH1 0x40 MLOAD PUSH2 0x205 SWAP2 SWAP1 PUSH2 0x997 JUMP JUMPDEST PUSH1 0x40 MLOAD DUP1 SWAP2 SUB SWAP1 RETURN JUMPDEST CALLVALUE DUP1 ISZERO PUSH2 0x219 JUMPI PUSH0 PUSH0 REVERT JUMPDEST POP PUSH2 0x222 PUSH2 0x730 JUMP JUMPDEST PUSH1 0x40 MLOAD PUSH2 0x22F SWAP2 SWAP1 PUSH2 0x8DB JUMP JUMPDEST PUSH1 0x40 MLOAD DUP1 SWAP2 SUB SWAP1 RETURN JUMPDEST CALLVALUE DUP1 ISZERO PUSH2 0x243 JUMPI PUSH0 PUSH0 REVERT JUMPDEST POP PUSH2 0x24C PUSH2 0x736 JUMP JUMPDEST PUSH1 0x40 MLOAD PUSH2 0x259 SWAP2 SWAP1 PUSH2 0x8DB JUMP JUMPDEST PUSH1 0x40 MLOAD DUP1 SWAP2 SUB SWAP1 RETURN JUMPDEST PUSH2 0x26A PUSH2 0x75C JUMP JUMPDEST STOP JUMPDEST PUSH0 SELFBALANCE SWAP1 POP SWAP1 JUMP JUMPDEST PUSH0 PUSH0 SWAP1 SLOAD SWAP1 PUSH2 0x100 EXP SWAP1 DIV PUSH20 0xFFFFFFFFFFFFFFFFFFFFFFFFFFFFFFFFFFFFFFFF AND PUSH20 0xFFFFFFFFFFFFFFFFFFFFFFFFFFFFFFFFFFFFFFFF AND CALLER PUSH20 0xFFFFFFFFFFFFFFFFFFFFFFFFFFFFFFFFFFFFFFFF AND EQ PUSH2 0x301 JUMPI PUSH1 0x40 MLOAD PUSH32 0x8C379A000000000000000000000000000000000000000000000000000000000 DUP2 MSTORE PUSH1 0x4 ADD PUSH2 0x2F8 SWAP1 PUSH2 0xA32 JUMP JUMPDEST PUSH1 0x40 MLOAD DUP1 SWAP2 SUB SWAP1 REVERT JUMPDEST PUSH1 0x2 SLOAD TIMESTAMP LT ISZERO PUSH2 0x346 JUMPI PUSH1 0x40 MLOAD PUSH32 0x8C379A000000000000000000000000000000000000000000000000000000000 DUP2 MSTORE PUSH1 0x4 ADD PUSH2 0x33D SWAP1 PUSH2 0xA9A JUMP JUMPDEST PUSH1 0x40 MLOAD DUP1 SWAP2 SUB SWAP1 REVERT JUMPDEST PUSH1 0x4 PUSH0 SWAP1 SLOAD SWAP1 PUSH2 0x100 EXP SWAP1 DIV PUSH1 0xFF AND PUSH2 0x394 JUMPI PUSH1 0x40 MLOAD PUSH32 0x8C379A000000000000000000000000000000000000000000000000000000000 DUP2 MSTORE PUSH1 0x4 ADD PUSH2 0x38B SWAP1 PUSH2 0xB02 JUMP JUMPDEST PUSH1 0x40 MLOAD DUP1 SWAP2 SUB SWAP1 REVERT JUMPDEST PUSH1 0x4 PUSH1 0x1 SWAP1 SLOAD SWAP1 PUSH2 0x100 EXP SWAP1 DIV PUSH1 0xFF AND ISZERO PUSH2 0x3E4 JUMPI PUSH1 0x40 MLOAD PUSH32 0x8C379A000000000000000000000000000000000000000000000000000000000 DUP2 MSTORE PUSH1 0x4 ADD PUSH2 0x3DB SWAP1 PUSH2 0xB6A JUMP JUMPDEST PUSH1 0x40 MLOAD DUP1 SWAP2 SUB SWAP1 REVERT JUMPDEST PUSH0 SELFBALANCE SWAP1 POP PUSH1 0x1 PUSH1 0x4 PUSH1 0x1 PUSH2 0x100 EXP DUP2 SLOAD DUP2 PUSH1 0xFF MUL NOT AND SWAP1 DUP4 ISZERO ISZERO MUL OR SWAP1 SSTORE POP PUSH0 PUSH0 SWAP1 SLOAD SWAP1 PUSH2 0x100 EXP SWAP1 DIV PUSH20 0xFFFFFFFFFFFFFFFFFFFFFFFFFFFFFFFFFFFFFFFF AND PUSH20 0xFFFFFFFFFFFFFFFFFFFFFFFFFFFFFFFFFFFFFFFF AND PUSH2 0x8FC DUP3 SWAP1 DUP2 ISZERO MUL SWAP1 PUSH1 0x40 MLOAD PUSH0 PUSH1 0x40 MLOAD DUP1 DUP4 SUB DUP2 DUP6 DUP9 DUP9 CALL SWAP4 POP POP POP POP ISZERO DUP1 ISZERO PUSH2 0x466 JUMPI RETURNDATASIZE PUSH0 PUSH0 RETURNDATACOPY RETURNDATASIZE PUSH0 REVERT JUMPDEST POP PUSH0 PUSH0 SWAP1 SLOAD SWAP1 PUSH2 0x100 EXP SWAP1 DIV PUSH20 0xFFFFFFFFFFFFFFFFFFFFFFFFFFFFFFFFFFFFFFFF AND PUSH20 0xFFFFFFFFFFFFFFFFFFFFFFFFFFFFFFFFFFFFFFFF AND PUSH32 0xEAFF4B37086828766AD3268786972C0CD24259D4C87A80F9D3963A3C3D999B0D DUP3 PUSH1 0x40 MLOAD PUSH2 0x4CD SWAP2 SWAP1 PUSH2 0x8DB JUMP JUMPDEST PUSH1 0x40 MLOAD DUP1 SWAP2 SUB SWAP1 LOG2 POP JUMP JUMPDEST PUSH1 0x2 SLOAD DUP2 JUMP JUMPDEST PUSH1 0x1 SLOAD DUP2 JUMP JUMPDEST PUSH1 0x5 PUSH1 0x20 MSTORE DUP1 PUSH0 MSTORE PUSH1 0x40 PUSH0 KECCAK256 PUSH0 SWAP2 POP SWAP1 POP SLOAD DUP2 JUMP JUMPDEST PUSH1 0x2 SLOAD TIMESTAMP LT ISZERO PUSH2 0x53E JUMPI PUSH1 0x40 MLOAD PUSH32 0x8C379A000000000000000000000000000000000000000000000000000000000 DUP2 MSTORE PUSH1 0x4 ADD PUSH2 0x535 SWAP1 PUSH2 0xA9A JUMP JUMPDEST PUSH1 0x40 MLOAD DUP1 SWAP2 SUB SWAP1 REVERT JUMPDEST PUSH1 0x4 PUSH0 SWAP1 SLOAD SWAP1 PUSH2 0x100 EXP SWAP1 DIV PUSH1 0xFF AND ISZERO PUSH2 0x58D JUMPI PUSH1 0x40 MLOAD PUSH32 0x8C379A000000000000000000000000000000000000000000000000000000000 DUP2 MSTORE PUSH1 0x4 ADD PUSH2 0x584 SWAP1 PUSH2 0xBD2 JUMP JUMPDEST PUSH1 0x40 MLOAD DUP1 SWAP2 SUB SWAP1 REVERT JUMPDEST PUSH0 PUSH1 0x5 PUSH0 CALLER PUSH20 0xFFFFFFFFFFFFFFFFFFFFFFFFFFFFFFFFFFFFFFFF AND PUSH20 0xFFFFFFFFFFFFFFFFFFFFFFFFFFFFFFFFFFFFFFFF AND DUP2 MSTORE PUSH1 0x20 ADD SWAP1 DUP2 MSTORE PUSH1 0x20 ADD PUSH0 KECCAK256 SLOAD SWAP1 POP PUSH0 DUP2 GT PUSH2 0x610 JUMPI PUSH1 0x40 MLOAD PUSH32 0x8C379A000000000000000000000000000000000000000000000000000000000 DUP2 MSTORE PUSH1 0x4 ADD PUSH2 0x607 SWAP1 PUSH2 0xC3A JUMP JUMPDEST PUSH1 0x40 MLOAD DUP1 SWAP2 SUB SWAP1 REVERT JUMPDEST PUSH0 PUSH1 0x5 PUSH0 CALLER PUSH20 0xFFFFFFFFFFFFFFFFFFFFFFFFFFFFFFFFFFFFFFFF AND PUSH20 0xFFFFFFFFFFFFFFFFFFFFFFFFFFFFFFFFFFFFFFFF AND DUP2 MSTORE PUSH1 0x20 ADD SWAP1 DUP2 MSTORE PUSH1 0x20 ADD PUSH0 KECCAK256 DUP2 SWAP1 SSTORE POP CALLER PUSH20 0xFFFFFFFFFFFFFFFFFFFFFFFFFFFFFFFFFFFFFFFF AND PUSH2 0x8FC DUP3 SWAP1 DUP2 ISZERO MUL SWAP1 PUSH1 0x40 MLOAD PUSH0 PUSH1 0x40 MLOAD DUP1 DUP4 SUB DUP2 DUP6 DUP9 DUP9 CALL SWAP4 POP POP POP POP ISZERO DUP1 ISZERO PUSH2 0x695 JUMPI RETURNDATASIZE PUSH0 PUSH0 RETURNDATACOPY RETURNDATASIZE PUSH0 REVERT JUMPDEST POP CALLER PUSH20 0xFFFFFFFFFFFFFFFFFFFFFFFFFFFFFFFFFFFFFFFF AND PUSH32 0xD7DEE2702D63AD89917B6A4DA9981C90C4D24F8C2BDFD64C604ECAE57D8D0651 DUP3 PUSH1 0x40 MLOAD PUSH2 0x6DC SWAP2 SWAP1 PUSH2 0x8DB JUMP JUMPDEST PUSH1 0x40 MLOAD DUP1 SWAP2 SUB SWAP1 LOG2 POP JUMP JUMPDEST PUSH1 0x4 PUSH0 SWAP1 SLOAD SWAP1 PUSH2 0x100 EXP SWAP1 DIV PUSH1 0xFF AND DUP2 JUMP JUMPDEST PUSH0 PUSH0 SWAP1 SLOAD SWAP1 PUSH2 0x100 EXP SWAP1 DIV PUSH20 0xFFFFFFFFFFFFFFFFFFFFFFFFFFFFFFFFFFFFFFFF AND DUP2 JUMP JUMPDEST PUSH1 0x4 PUSH1 0x1 SWAP1 SLOAD SWAP1 PUSH2 0x100 EXP SWAP1 DIV PUSH1 0xFF AND DUP2 JUMP JUMPDEST PUSH1 0x3 SLOAD DUP2 JUMP JUMPDEST PUSH0 PUSH1 0x2 SLOAD TIMESTAMP LT PUSH2 0x748 JUMPI PUSH0 SWAP1 POP PUSH2 0x759 JUMP JUMPDEST TIMESTAMP PUSH1 0x2 SLOAD PUSH2 0x756 SWAP2 SWAP1 PUSH2 0xC85 JUMP JUMPDEST SWAP1 POP JUMPDEST SWAP1 JUMP JUMPDEST PUSH1 0x2 SLOAD TIMESTAMP LT PUSH2 0x7A0 JUMPI PUSH1 0x40 MLOAD PUSH32 0x8C379A000000000000000000000000000000000000000000000000000000000 DUP2 MSTORE PUSH1 0x4 ADD PUSH2 0x797 SWAP1 PUSH2 0xD02 JUMP JUMPDEST PUSH1 0x40 MLOAD DUP1 SWAP2 SUB SWAP1 REVERT JUMPDEST PUSH0 CALLVALUE GT PUSH2 0x7E2 JUMPI PUSH1 0x40 MLOAD PUSH32 0x8C379A000000000000000000000000000000000000000000000000000000000 DUP2 MSTORE PUSH1 0x4 ADD PUSH2 0x7D9 SWAP1 PUSH2 0xD6A JUMP JUMPDEST PUSH1 0x40 MLOAD DUP1 SWAP2 SUB SWAP1 REVERT JUMPDEST CALLVALUE PUSH1 0x5 PUSH0 CALLER PUSH20 0xFFFFFFFFFFFFFFFFFFFFFFFFFFFFFFFFFFFFFFFF AND PUSH20 0xFFFFFFFFFFFFFFFFFFFFFFFFFFFFFFFFFFFFFFFF AND DUP2 MSTORE PUSH1 0x20 ADD SWAP1 DUP2 MSTORE PUSH1 0x20 ADD PUSH0 KECCAK256 PUSH0 DUP3 DUP3 SLOAD PUSH2 0x82E SWAP2 SWAP1 PUSH2 0xD88 JUMP JUMPDEST SWAP3 POP POP DUP2 SWAP1 SSTORE POP CALLVALUE PUSH1 0x3 PUSH0 DUP3 DUP3 SLOAD PUSH2 0x846 SWAP2 SWAP1 PUSH2 0xD88 JUMP JUMPDEST SWAP3 POP POP DUP2 SWAP1 SSTORE POP PUSH1 0x1 SLOAD PUSH1 0x3 SLOAD LT PUSH2 0x873 JUMPI PUSH1 0x1 PUSH1 0x4 PUSH0 PUSH2 0x100 EXP DUP2 SLOAD DUP2 PUSH1 0xFF MUL NOT AND SWAP1 DUP4 ISZERO ISZERO MUL OR SWAP1 SSTORE POP JUMPDEST CALLER PUSH20 0xFFFFFFFFFFFFFFFFFFFFFFFFFFFFFFFFFFFFFFFF AND PUSH32 0x5D8BC849764969EB1BCC6D0A2F55999D0167C1CCEC240A4F39CF664CA9C4148E CALLVALUE PUSH1 0x40 MLOAD PUSH2 0x8B9 SWAP2 SWAP1 PUSH2 0x8DB JUMP JUMPDEST PUSH1 0x40 MLOAD DUP1 SWAP2 SUB SWAP1 LOG2 JUMP JUMPDEST PUSH0 DUP2 SWAP1 POP SWAP2 SWAP1 POP JUMP JUMPDEST PUSH2 0x8D5 DUP2 PUSH2 0x8C3 JUMP JUMPDEST DUP3 MSTORE POP POP JUMP JUMPDEST PUSH0 PUSH1 0x20 DUP3 ADD SWAP1 POP PUSH2 0x8EE PUSH0 DUP4 ADD DUP5 PUSH2 0x8CC JUMP JUMPDEST SWAP3 SWAP2 POP POP JUMP JUMPDEST PUSH0 PUSH0 REVERT JUMPDEST PUSH0 PUSH20 0xFFFFFFFFFFFFFFFFFFFFFFFFFFFFFFFFFFFFFFFF DUP3 AND SWAP1 POP SWAP2 SWAP1 POP JUMP JUMPDEST PUSH0 PUSH2 0x921 DUP3 PUSH2 0x8F8 JUMP JUMPDEST SWAP1 POP SWAP2 SWAP1 POP JUMP JUMPDEST PUSH2 0x931 DUP2 PUSH2 0x917 JUMP JUMPDEST DUP2 EQ PUSH2 0x93B JUMPI PUSH0 PUSH0 REVERT JUMPDEST POP JUMP JUMPDEST PUSH0 DUP2 CALLDATALOAD SWAP1 POP PUSH2 0x94C DUP2 PUSH2 0x928 JUMP JUMPDEST SWAP3 SWAP2 POP POP JUMP JUMPDEST PUSH0 PUSH1 0x20 DUP3 DUP5 SUB SLT ISZERO PUSH2 0x967 JUMPI PUSH2 0x966 PUSH2 0x8F4 JUMP JUMPDEST JUMPDEST PUSH0 PUSH2 0x974 DUP5 DUP3 DUP6 ADD PUSH2 0x93E JUMP JUMPDEST SWAP2 POP POP SWAP3 SWAP2 POP POP JUMP JUMPDEST PUSH0 DUP2 ISZERO ISZERO SWAP1 POP SWAP2 SWAP1 POP JUMP JUMPDEST PUSH2 0x991 DUP2 PUSH2 0x97D JUMP JUMPDEST DUP3 MSTORE POP POP JUMP JUMPDEST PUSH0 PUSH1 0x20 DUP3 ADD SWAP1 POP PUSH2 0x9AA PUSH0 DUP4 ADD DUP5 PUSH2 0x988 JUMP JUMPDEST SWAP3 SWAP2 POP POP JUMP JUMPDEST PUSH2 0x9B9 DUP2 PUSH2 0x917 JUMP JUMPDEST DUP3 MSTORE POP POP JUMP JUMPDEST PUSH0 PUSH1 0x20 DUP3 ADD SWAP1 POP PUSH2 0x9D2 PUSH0 DUP4 ADD DUP5 PUSH2 0x9B0 JUMP JUMPDEST SWAP3 SWAP2 POP POP JUMP JUMPDEST PUSH0 DUP3 DUP3 MSTORE PUSH1 0x20 DUP3 ADD SWAP1 POP SWAP3 SWAP2 POP POP JUMP JUMPDEST PUSH32 0x596F7520617265206E6F74206F776E65722E0000000000000000000000000000 PUSH0 DUP3 ADD MSTORE POP JUMP JUMPDEST PUSH0 PUSH2 0xA1C PUSH1 0x12 DUP4 PUSH2 0x9D8 JUMP JUMPDEST SWAP2 POP PUSH2 0xA27 DUP3 PUSH2 0x9E8 JUMP JUMPDEST PUSH1 0x20 DUP3 ADD SWAP1 POP SWAP2 SWAP1 POP JUMP JUMPDEST PUSH0 PUSH1 0x20 DUP3 ADD SWAP1 POP DUP2 DUP2 SUB PUSH0 DUP4 ADD MSTORE PUSH2 0xA49 DUP2 PUSH2 0xA10 JUMP JUMPDEST SWAP1 POP SWAP2 SWAP1 POP JUMP JUMPDEST PUSH32 0x43616D706169676E206E6F742079657420656E6465642E000000000000000000 PUSH0 DUP3 ADD MSTORE POP JUMP JUMPDEST PUSH0 PUSH2 0xA84 PUSH1 0x17 DUP4 PUSH2 0x9D8 JUMP JUMPDEST SWAP2 POP PUSH2 0xA8F DUP3 PUSH2 0xA50 JUMP JUMPDEST PUSH1 0x20 DUP3 ADD SWAP1 POP SWAP2 SWAP1 POP JUMP JUMPDEST PUSH0 PUSH1 0x20 DUP3 ADD SWAP1 POP DUP2 DUP2 SUB PUSH0 DUP4 ADD MSTORE PUSH2 0xAB1 DUP2 PUSH2 0xA78 JUMP JUMPDEST SWAP1 POP SWAP2 SWAP1 POP JUMP JUMPDEST PUSH32 0x476F616C206E6F74207265616368656400000000000000000000000000000000 PUSH0 DUP3 ADD MSTORE POP JUMP JUMPDEST PUSH0 PUSH2 0xAEC PUSH1 0x10 DUP4 PUSH2 0x9D8 JUMP JUMPDEST SWAP2 POP PUSH2 0xAF7 DUP3 PUSH2 0xAB8 JUMP JUMPDEST PUSH1 0x20 DUP3 ADD SWAP1 POP SWAP2 SWAP1 POP JUMP JUMPDEST PUSH0 PUSH1 0x20 DUP3 ADD SWAP1 POP DUP2 DUP2 SUB PUSH0 DUP4 ADD MSTORE PUSH2 0xB19 DUP2 PUSH2 0xAE0 JUMP JUMPDEST SWAP1 POP SWAP2 SWAP1 POP JUMP JUMPDEST PUSH32 0x416C72656164792077697468647261776E000000000000000000000000000000 PUSH0 DUP3 ADD MSTORE POP JUMP JUMPDEST PUSH0 PUSH2 0xB54 PUSH1 0x11 DUP4 PUSH2 0x9D8 JUMP JUMPDEST SWAP2 POP PUSH2 0xB5F DUP3 PUSH2 0xB20 JUMP JUMPDEST PUSH1 0x20 DUP3 ADD SWAP1 POP SWAP2 SWAP1 POP JUMP JUMPDEST PUSH0 PUSH1 0x20 DUP3 ADD SWAP1 POP DUP2 DUP2 SUB PUSH0 DUP4 ADD MSTORE PUSH2 0xB81 DUP2 PUSH2 0xB48 JUMP JUMPDEST SWAP1 POP SWAP2 SWAP1 POP JUMP JUMPDEST PUSH32 0x476F616C2077617320726561636865642C206E6F20726566756E647321000000 PUSH0 DUP3 ADD MSTORE POP JUMP JUMPDEST PUSH0 PUSH2 0xBBC PUSH1 0x1D DUP4 PUSH2 0x9D8 JUMP JUMPDEST SWAP2 POP PUSH2 0xBC7 DUP3 PUSH2 0xB88 JUMP JUMPDEST PUSH1 0x20 DUP3 ADD SWAP1 POP SWAP2 SWAP1 POP JUMP JUMPDEST PUSH0 PUSH1 0x20 DUP3 ADD SWAP1 POP DUP2 DUP2 SUB PUSH0 DUP4 ADD MSTORE PUSH2 0xBE9 DUP2 PUSH2 0xBB0 JUMP JUMPDEST SWAP1 POP SWAP2 SWAP1 POP JUMP JUMPDEST PUSH32 0x4E6F7468696E6720746F20726566756E64000000000000000000000000000000 PUSH0 DUP3 ADD MSTORE POP JUMP JUMPDEST PUSH0 PUSH2 0xC24 PUSH1 0x11 DUP4 PUSH2 0x9D8 JUMP JUMPDEST SWAP2 POP PUSH2 0xC2F DUP3 PUSH2 0xBF0 JUMP JUMPDEST PUSH1 0x20 DUP3 ADD SWAP1 POP SWAP2 SWAP1 POP JUMP JUMPDEST PUSH0 PUSH1 0x20 DUP3 ADD SWAP1 POP DUP2 DUP2 SUB PUSH0 DUP4 ADD MSTORE PUSH2 0xC51 DUP2 PUSH2 0xC18 JUMP JUMPDEST SWAP1 POP SWAP2 SWAP1 POP JUMP JUMPDEST PUSH32 0x4E487B7100000000000000000000000000000000000000000000000000000000 PUSH0 MSTORE PUSH1 0x11 PUSH1 0x4 MSTORE PUSH1 0x24 PUSH0 REVERT JUMPDEST PUSH0 PUSH2 0xC8F DUP3 PUSH2 0x8C3 JUMP JUMPDEST SWAP2 POP PUSH2 0xC9A DUP4 PUSH2 0x8C3 JUMP JUMPDEST SWAP3 POP DUP3 DUP3 SUB SWAP1 POP DUP2 DUP2 GT ISZERO PUSH2 0xCB2 JUMPI PUSH2 0xCB1 PUSH2 0xC58 JUMP JUMPDEST JUMPDEST SWAP3 SWAP2 POP POP JUMP JUMPDEST PUSH32 0x43616D706169676E20656E646564000000000000000000000000000000000000 PUSH0 DUP3 ADD MSTORE POP JUMP JUMPDEST PUSH0 PUSH2 0xCEC PUSH1 0xE DUP4 PUSH2 0x9D8 JUMP JUMPDEST SWAP2 POP PUSH2 0xCF7 DUP3 PUSH2 0xCB8 JUMP JUMPDEST PUSH1 0x20 DUP3 ADD SWAP1 POP SWAP2 SWAP1 POP JUMP JUMPDEST PUSH0 PUSH1 0x20 DUP3 ADD SWAP1 POP DUP2 DUP2 SUB PUSH0 DUP4 ADD MSTORE PUSH2 0xD19 DUP2 PUSH2 0xCE0 JUMP JUMPDEST SWAP1 POP SWAP2 SWAP1 POP JUMP JUMPDEST PUSH32 0x4D7573742073656E642045544800000000000000000000000000000000000000 PUSH0 DUP3 ADD MSTORE POP JUMP JUMPDEST PUSH0 PUSH2 0xD54 PUSH1 0xD DUP4 PUSH2 0x9D8 JUMP JUMPDEST SWAP2 POP PUSH2 0xD5F DUP3 PUSH2 0xD20 JUMP JUMPDEST PUSH1 0x20 DUP3 ADD SWAP1 POP SWAP2 SWAP1 POP JUMP JUMPDEST PUSH0 PUSH1 0x20 DUP3 ADD SWAP1 POP DUP2 DUP2 SUB PUSH0 DUP4 ADD MSTORE PUSH2 0xD81 DUP2 PUSH2 0xD48 JUMP JUMPDEST SWAP1 POP SWAP2 SWAP1 POP JUMP JUMPDEST PUSH0 PUSH2 0xD92 DUP3 PUSH2 0x8C3 JUMP JUMPDEST SWAP2 POP PUSH2 0xD9D DUP4 PUSH2 0x8C3 JUMP JUMPDEST SWAP3 POP DUP3 DUP3 ADD SWAP1 POP DUP1 DUP3 GT ISZERO PUSH2 0xDB5 JUMPI PUSH2 0xDB4 PUSH2 0xC58 JUMP JUMPDEST JUMPDEST SWAP3 SWAP2 POP POP JUMP INVALID LOG2 PUSH5 0x6970667358 0x22 SLT KECCAK256 SWAP6 SELFBALANCE DUP12 0xAE MSTORE8 PUSH6 0xFB24D7978E6C XOR SWAP3 SELFBALANCE 0xBD 0x28 BALANCE EOFCREATE 0xC0 PUSH14 0x275248A6EA3301A0EDE82964736F PUSH13 0x634300081E0033000000000000 "
				},
				"gasEstimates": {
					"creation": {
						"codeDepositCost": "713800",
						"executionCost": "infinite",
						"totalCost": "infinite"
					},
					"external": {
						"contributions(address)": "2891",
						"deadline()": "2470",
						"donate()": "infinite",
						"fundsWithdrawn()": "2561",
						"getBalance()": "335",
						"getTimeLeft()": "infinite",
						"goal()": "2492",
						"goalReached()": "2466",
						"owner()": "2529",
						"refund()": "infinite",
						"totalRaised()": "2491",
						"withdrawFunds()": "infinite"
					}
				},
				"methodIdentifiers": {
					"contributions(address)": "42e94c90",
					"deadline()": "29dcb0cf",
					"donate()": "ed88c68e",
					"fundsWithdrawn()": "ac307fcf",
					"getBalance()": "12065fe0",
					"getTimeLeft()": "c7e284b8",
					"goal()": "40193883",
					"goalReached()": "7d3d6522",
					"owner()": "8da5cb5b",
					"refund()": "590e1ae3",
					"totalRaised()": "c5c4744c",
					"withdrawFunds()": "24600fc3"
				}
			},
			"storageLayout": {
				"storage": [
					{
						"astId": 3,
						"contract": "contracts/4_CrowdFund.sol:CrowdFund",
						"label": "owner",
						"offset": 0,
						"slot": "0",
						"type": "t_address"
					},
					{
						"astId": 5,
						"contract": "contracts/4_CrowdFund.sol:CrowdFund",
						"label": "goal",
						"offset": 0,
						"slot": "1",
						"type": "t_uint256"
					},
					{
						"astId": 7,
						"contract": "contracts/4_CrowdFund.sol:CrowdFund",
						"label": "deadline",
						"offset": 0,
						"slot": "2",
						"type": "t_uint256"
					},
					{
						"astId": 9,
						"contract": "contracts/4_CrowdFund.sol:CrowdFund",
						"label": "totalRaised",
						"offset": 0,
						"slot": "3",
						"type": "t_uint256"
					},
					{
						"astId": 11,
						"contract": "contracts/4_CrowdFund.sol:CrowdFund",
						"label": "goalReached",
						"offset": 0,
						"slot": "4",
						"type": "t_bool"
					},
					{
						"astId": 13,
						"contract": "contracts/4_CrowdFund.sol:CrowdFund",
						"label": "fundsWithdrawn",
						"offset": 1,
						"slot": "4",
						"type": "t_bool"
					},
					{
						"astId": 17,
						"contract": "contracts/4_CrowdFund.sol:CrowdFund",
						"label": "contributions",
						"offset": 0,
						"slot": "5",
						"type": "t_mapping(t_address,t_uint256)"
					}
				],
				"types": {
					"t_address": {
						"encoding": "inplace",
						"label": "address",
						"numberOfBytes": "20"
					},
					"t_bool": {
						"encoding": "inplace",
						"label": "bool",
						"numberOfBytes": "1"
					},
					"t_mapping(t_address,t_uint256)": {
						"encoding": "mapping",
						"key": "t_address",
						"label": "mapping(address => uint256)",
						"numberOfBytes": "32",
						"value": "t_uint256"
					},
					"t_uint256": {
						"encoding": "inplace",
						"label": "uint256",
						"numberOfBytes": "32"
					}
				}
			},
			"userdoc": {
				"kind": "user",
				"methods": {},
				"version": 1
			}
		}
	}
}